:100000000C9450000C946D000C946D000C946D00D9
:100010000C946D000C946D000C946D000C946D00AC
:100020000C946D000C946D000C946D000C946D009C
:100030000C946D000C946D000C946D000C946D008C
:100040000C946D000C946D000C946D000C946D007C
:100050000C946D000C946D000C946D000C946D006C
:100060000C946D000C946D00000000000020000056
:100070000000000000000000000000000000000080
:10008000000000000000000004B6E704B6D304B688
:10009000C704B6C302900703AC8103AC8002900092
:1000A00011241FBECFEFD8E0DEBFCDBF11E0A0E02E
:1000B000B1E0E0E0FBE002C005900D92A031B10795
:1000C000D9F721E0A0E1B1E001C01D92A734B20749
:1000D000E1F70E9490030C947E050C940000C498F4
:1000E0000E946A028FEF0E946A02C49A0895FF92EA
:1000F0000F931F93182F062FF42EC49885E00E94AB
:100100006A02812F0E946A02802F0E946A028F2D4C
:100110000E946A02C49A1F910F91FF9008951F9345
:10012000182FC49883E00E946A02812F0E946A02FD
:100130008FEF0E946A02C49A1F9108950F931F9334
:10014000182F062FC49882E00E946A02812F0E9415
:100150006A02802F0E946A02C49A1F910F9108952B
:100160000F931F93CF93DF93182F883008F055C05B
:10017000C49ABC9AC798C598C698BF9ABD9ABE98AB
:100180000E946502C49880EC0E946A0280EA9FE0A7
:100190000197F1F7C49A80E49CE90197F1F7C498BC
:1001A00082E00E946A0288E20E946A02E3E01E9FE7
:1001B000E0011124FE01E857FF4FE4918E2F0E94C9
:1001C0006A02FE01E757FF4F0491802F0E946A02E6
:1001D000C657DF4FFE0184910E946A0283E00E94AD
:1001E0006A02C49A8DE060E00E949E00BA98C29AAA
:1001F0008CE060E00E949E0089E20E948F00182F30
:100200008FE060E00E949E00101739F48EE00E949B
:100210008F00807ED9F781E001C080E0DF91CF912F
:100220001F910F91089586B386958695809581706C
:10023000089580EA0E946F0090E08475843509F08B
:1002400091E0892F0895AF92BF92DF92EF92FF92D3
:100250000F931F93CF93DF937C0180EB0E946F007D
:10026000D82EC82FD0E020E4A22EB12CAC22BD2283
:1002700086FF02C080E903C087FF11C084E9C498EB
:100280000E946A02C7010E942C0280FF0DC0C49A1E
:10029000AB2839F08CE261E040E00E94770080E01A
:1002A0002FC08CE262E0F8CF8FEF0E946A0293E0E9
:1002B000D695C7959A95E1F7AE014170F701928105
:1002C0009E7F942B9283082F0F70038310E008C049
:1002D0008FEF0E946A02F701E10FF11D84831F5F17
:1002E0001017B0F3C49AAB2819F08CE261E002C099
:1002F0008CE262E040E00E9477008D2D87708F5F76
:10030000DF91CF911F910F91FF90EF90DF90BF9001
:10031000AF900895FF920F931F93CF93DF93EC015B
:1003200080EA0E946F0082FD02C0FF240BC084FDA2
:1003300003C092E0F92E06C086FF02C0FF2430C041
:1003400084E0F82EC4988F2D80640E946A02CE014A
:100350000E9413020B810F708A8180FF05C0802FDD
:1003600080640E946A020EC0802F0E946A0210E020
:1003700007C0FE01E10FF11D84810E946A021F5F28
:100380001017B8F3C49A85E08A95F1F7C498FF2056
:1003900011F4FF24F3948F2D80680E946A02C49A9E
:1003A0008F2DDF91CF911F910F91FF9008950F93A3
:1003B0001F93CF93DF93EC018FE060EE40E80E9443
:1003C00077008EE00E948F00807E8038D1F780E633
:1003D00064E00E949E0080E760E00E949E0000E0D2
:1003E000C49882E00E946A02802F0E946A0210E094
:1003F000003211F4183048F4FE012196E4918E2F5A
:100400000E946A021F5F1C3099F7C49A005F003394
:1004100039F78FE060EE40E00E947700DF91CF91E6
:100420001F910F910895FC018081918123E09695A1
:1004300087952A95E1F78FB98081779BFECF9FB191
:100440008295880F807E0E946A0280E00E946A0284
:1004500080E00E946A0208951F93CF93DF93EC011E
:100460008FEF0E946A02182F8FEF0E946A02282FD6
:10047000382F83FF08C08FEF0E946A028FEF0E941F
:100480006A0281E01EC08FEF8FB9812F90E043E0B8
:10049000880F991F4A95E1F799838883779BFECF50
:1004A0008FB18FEF8FB92295269527708881822B87
:1004B0008883779BFECF8FB134FD02C080E001C0FE
:1004C00082E0DF91CF911F91089581E58DB981E0A0
:1004D0008EB908958FB9779BFECF8FB108958F9213
:1004E0009F92AF92BF92CF92DF92EF92FF920F93C3
:1004F0004A015B01922F2091C0002091C100209100
:10050000C2002FEFE21621F021E02E1508F47DC085
:100510000F3F19F0033008F07AC09F3F19F0953073
:1005200008F077C08F3F89F48091C200829586954C
:100530008695837021F0833009F46FC005C08091E7
:10054000C0008695817001C080E09FEF89169906F2
:10055000A906B90609F45FC08130B9F018F08430FB
:1005600039F139C060E472E48FE090E0A5019401B4
:100570000E942C05DA01C9010197A109B1094C01BA
:100580005D01C12CD12C76012EC060E874E88EE1AB
:1005900090E0A50194010E942C05DA01C9010197A0
:1005A000A109B1094C015D01C12CD12C76011BC000
:1005B00060E072E18AE790E0A50194010E942C05B9
:1005C000DA01C9010197A109B1094C015D01C12CF2
:1005D000D12C760108C0812C912CA12CB12CC12CDE
:1005E000D12CE12CF12C282D392D4A2D5B2D6C2D91
:1005F0007D2D8E2D9F2D08E00E9450052F70209399
:10060000C5008092C40080E00FC087E00DC085E087
:100610000BC085E009C080E007C02FEF821692066C
:10062000A206B20629F680E00F91FF90EF90DF90CE
:10063000CF90BF90AF909F908F900895E1ECF0E045
:1006400080818061808380E00895E1ECF0E080812A
:100650008860808380E00895E1ECF0E0808180682C
:10066000808380E008958091C00085FB882780F911
:100670000895CF93C82F0E9433038823E1F3C093DA
:10068000C60080E0CF910895CF93DF93609144013D
:1006900070E0FB01E05FFE4FD081C0914301CC23AD
:1006A00089F06F5F7F4F072E000C880B990B22E3B8
:1006B00030E040E050E00E942C0560934401C150BE
:1006C000C09343018D2FDF91CF91089581E09091E8
:1006D0004301911180E008950F931F93CF938C01F4
:1006E00080E40E943903F8018081882351F0C0E042
:1006F0000E943903CF5FF801EC0FF11D8081811159
:10070000F7CF8AE20E943903CF911F910F9108958C
:1007100002C00E9444030E9466038823D1F3089517
:10072000CF93DF93CDB7DEB7CB5BD1090FB6F8948B
:10073000DEBF0FBECDBF2FEF83ED90E32150804091
:100740009040E1F700C000001BAA1CAA1DAA1EAA27
:10075000FE01F79680E6DF011D928A95E9F7C956FA
:10076000DF4F188219821A821B82C759D040C556A2
:10077000DF4F188219821A821B82CB59D040809198
:100780004601837F88608093460181E08AB9109298
:10079000450184E00E94B00088E690E00E94D70105
:1007A000C156DF4F19821882CF59D04085E0CE550F
:1007B000DF4F8883C25AD040809146018C708430CC
:1007C00081F4E12C00E023E040E855E260E070E0D5
:1007D00080E00E946F020E941E030E9425030E9477
:1007E0002C0310E07E01BFE9EB0EF11CAE2CBF2CF8
:1007F000FE0131966F01CE01C396C954DF4F998334
:100800008883C75BD040DE01A956BF4FC754DF4F76
:10081000B983A883C95BD0400F2EFFE42F2EFBE4E1
:100820003F2E412CF02D6E2E7D2CC954DF4F888039
:10083000C75BD040C854DF4F9880C85BD040C754D6
:10084000DF4FB881C95BD040C554DF4FB883CB5B65
:10085000D040C654DF4F5880CA5BD04001E08BB116
:10086000882351F080914501817080279091450146
:1008700080FB90F9909345018BB1882359F08091CA
:1008800045018695817080279091450180FB91F903
:10089000909345018BB1882361F08091450182FBE3
:1008A000882780F980279091450180FB92F99093E9
:1008B00045018BB1882361F08091450183FB882736
:1008C00080F980279091450180FB93F99093450131
:1008D0008BB1882359F080914501829581708027E2
:1008E0009091450180FB94F99093450180914501D9
:1008F0008170F7018483809145018695817085839D
:100900008091450182FB882780F98683809145018B
:1009100083FB882780F987838091450182958170C8
:1009200080878A2D9B2D0E948A010E9413018823B3
:1009300061F0CE0185559F4F0E942301882329F045
:10094000CE0185559F4F0E948A01809146018C708F
:10095000843009F084CF7AC001E0010F0E94440383
:10096000F601E10FF11D8083FE01E00FF11D808192
:100970008A3209F06AC08981803409F062C0662D2C
:10098000772D882D992D0E9477059DA98CA904307B
:1009900009F040C02CA93DA93CAB2BAB1DAA90533C
:1009A000880F8056282F220F220F820F980F41F4B4
:1009B000C956DF4F288239824A82C759D0400DC0BC
:1009C000E0E0F1E0C554DF4FA881CB5BD040B52D0E
:1009D00085E001900D928A95E1F7C554DF4F68815B
:1009E000CB5BD040752D882D992D0E946C05682D0C
:1009F000792DC554DF4F8881CB5BD040952D0E9467
:100A00007705C554DF4F8881CB5BD040952D0E9480
:100A10006C0319C0083071F48EA99FA9A8ADB9ADB7
:100A20008BAB9CABADABBEAB1FAA80E091E00E944C
:100A30006C0309C085E091E00E946C030E9488036A
:100A400002C00E94880310E001C0102F0E946603BC
:100A5000882309F481CF02CFA1E21A2EAA1BBB1B67
:100A6000FD010DC0AA1FBB1FEE1FFF1FA217B3077A
:100A7000E407F50720F0A21BB30BE40BF50B661F90
:100A8000771F881F991F1A9469F760957095809554
:100A900090959B01AC01BD01CF01089597FB10F823
:100AA000169400080F93083098F00850232F342F25
:100AB000452F562F672F782F892F902DF4CF05942F
:100AC0009795879577956795579547953795279586
:100AD0000A95AAF70F910895FB01DC010D90002003
:100AE000E9F7119701900D920020E1F70895FB01BD
:100AF000DC0101900D920020E1F70895F894FFCFFA
:100B00004552524F0077726F6E672073697A6500A5
:00000001FF
