:100000000C9434000C9451000C9451000C94510049
:100010000C9451000C9451000C9451000C9451001C
:100020000C9451000C9451000C9451000C94D0008D
:100030000C94E8000C9451000C9451000C94510065
:100040000C9451000C9451000C9451000C945100EC
:100050000C9451000C947A000C9451000C945100B3
:100060000C9451000C94510011241FBECFEFD8E026
:10007000DEBFCDBF11E0A0E0B1E0E8EFF4E102C0E7
:1000800005900D92AC31B107D9F721E0ACE1B1E0B8
:1000900001C01D92AB35B207E1F70E94D1090C9463
:1000A0007A0A0C940000CF93C82F80931C01809192
:1000B0000801C81718F410921D011AC08091070199
:1000C0008C1720F484E680931D0112C0C0931D019B
:1000D0000E94B4069C01C29FC001C39F900D1124D1
:1000E00064E670E00E94260ACB01CF910C94BA0618
:1000F000CF9108951F920F920FB60F9211242F9354
:100100003F934F935F936F937F938F939F93AF939F
:10011000BF93EF93FF9380911F018130C9F068F086
:10012000823009F1833049F580917800909179000F
:10013000969587958093030120C0809178009091D7
:10014000790065E070E00E94260A60931E0115C0E8
:1001500080917800909179006AE070E00E94260A10
:1001600060931C010AC080917800909179006EE143
:1001700070E00E94260A609301010E94F307FF913C
:10018000EF91BF91AF919F918F917F916F915F910F
:100190004F913F912F910F900FBE0F901F90189588
:1001A0001F920F920FB60F9211248F9380911D0111
:1001B000882341F080910501882321F0809104017A
:1001C0008111299A8F910F900FBE0F901F90189553
:1001D0001F920F920FB60F9211248F9380911D01E1
:1001E000843608F429988F910F900FBE0F901F90BE
:1001F000189578940895F89408958430E9F085303E
:1002000048F4813089F0813088F0823089F0833081
:1002100049F410C08630A1F0863080F0873091F02C
:10022000883091F087E0089521E00FC020E00DC0F4
:1002300022E00BC023E009C024E007C025E005C090
:1002400026E003C027E001C028E09FB7F89480E8CB
:1002500080936100209361009FBF80E008959FB369
:100260008295807F9F7C982B9FBB0895FB9A089571
:10027000FB980895F999FECF27B7937092BD81BD81
:1002800060BD8FB7F894FA9AF99A8FBF0895F999DB
:10029000FECF937092BD81BDF89A80B5089585B761
:1002A0008F7E85BF089585B7806185BF08958230B0
:1002B00091F0833028F4882349F0813029F408C074
:1002C000833059F08F3F59F081E008955A9801C06A
:1002D0005A9A529A04C05A9801C05A9A52986F3F3B
:1002E00011F480E00895809169008C7F623079F08C
:1002F000633028F4662371F0613029F406C063305E
:1003000041F06F3F39F082E00895816003C0826060
:1003100001C083608093690080E00895E89A0895A1
:10032000E8980895E09A0895823091F0833028F497
:10033000882349F0813029F408C0833059F08F3F79
:1003400059F081E008955B9801C05B9A539A04C00C
:100350005B9801C05B9A53986F3F11F480E0089559
:1003600080916900837F623079F0633028F46623DE
:1003700071F0613029F406C0633041F06F3F39F00D
:1003800082E00895846003C0886001C08C6080931F
:10039000690080E00895E99A0895E9980895E19A3E
:1003A0000895E8E6F0E08081816080830895E8E6C2
:1003B000F0E080818E7F80830895D89A08958230FE
:1003C00091F0833028F4882349F0813029F408C063
:1003D000833059F08F3F59F081E00895289801C08B
:1003E000289A209A04C0289801C0289A20988091C1
:1003F0006B00816080936B0080E00895EBE6F0E095
:1004000080818E7F80830895823091F0833028F43C
:10041000882349F0813029F408C0833059F08F3F98
:1004200059F081E00895299801C0299A219A04C0C1
:10043000299801C0299A219880916B00826080934D
:100440006B0080E00895EBE6F0E080818D7F808393
:100450000895823091F0833028F4882349F0813068
:1004600029F408C0833059F08F3F59F081E0089596
:100470002A9801C02A9A229A04C02A9801C02A9A6E
:10048000229880916B00846080936B0080E00895D7
:10049000EBE6F0E080818B7F80830895823091F0DD
:1004A000833028F4882349F0813029F408C0833050
:1004B00059F08F3F59F081E008952B9801C02B9A95
:1004C000239A04C02B9801C02B9A239880916B002B
:1004D000886080936B0080E00895EBE6F0E0808117
:1004E000877F80830895823091F0833028F48823B9
:1004F00049F0813029F408C0833059F08F3F59F01A
:1005000081E008952C9801C02C9A249A04C02C985C
:1005100001C02C9A249880916B00806180936B00BD
:1005200080E00895EBE6F0E080818F7E808308957F
:10053000823091F0833028F4882349F0813029F407
:1005400008C0833059F08F3F59F081E008952D980D
:1005500001C02D9A259A04C02D9801C02D9A259886
:1005600080916B00806280936B0080E00895EBE6E1
:10057000F0E080818F7D80830895823091F0833018
:1005800028F4882349F0813029F408C0833059F0D9
:100590008F3F59F081E008952E9801C02E9A269A37
:1005A00004C02E9801C02E9A269880916B0080641A
:1005B00080936B0080E00895EBE6F0E080818F7B14
:1005C00080830895823091F0833028F4882349F0A5
:1005D000813029F408C0833059F08F3F59F081E011
:1005E00008952F9801C02F9A279A04C02F9801C010
:1005F0002F9A279880916B00806880936B0080E031
:100600000895EBE6F0E080818F7780830895E8E637
:10061000F0E08081826080830895E8E6F0E08081E8
:100620008D7F80830895D99A0895823091F0833028
:1006300028F4882349F0813029F408C0833059F028
:100640008F3F59F081E00895409801C0409A389A50
:1006500004C0409801C0409A389880916C00816035
:1006600080936C0080E00895ECE6F0E080818E7F5E
:1006700080830895823091F0833028F4882349F0F4
:10068000813029F408C0833059F08F3F59F081E060
:100690000895419801C0419A399A04C0419801C017
:1006A000419A399880916C00826080936C0080E060
:1006B0000895ECE6F0E080818D7F8083089582309C
:1006C00091F0833028F4882349F0813029F408C060
:1006D000833059F08F3F59F081E00895429801C06E
:1006E000429A3A9A04C0429801C0429A3A9880913C
:1006F0006C00846080936C0080E00895ECE6F0E08C
:1007000080818B7F80830895823091F0833028F43C
:10071000882349F0813029F408C0833059F08F3F95
:1007200059F081E00895439801C0439A3B9A04C070
:10073000439801C0439A3B9880916C0088608093F5
:100740006C0080E00895ECE6F0E08081877F808394
:100750000895823091F0833028F4882349F0813065
:1007600029F408C0833059F08F3F59F081E0089593
:10077000449801C0449A3C9A04C0449801C0449AE9
:100780003C9880916C00806180936C0080E00895BB
:10079000ECE6F0E080818F7E80830895823091F0D6
:1007A000833028F4882349F0813029F408C083304D
:1007B00059F08F3F59F081E00895459801C0459A5E
:1007C0003D9A04C0459801C0459A3D9880916C00BF
:1007D000806280936C0080E00895ECE6F0E0808118
:1007E0008F7D80830895823091F0833028F48823B0
:1007F00049F0813029F408C0833059F08F3F59F017
:1008000081E00895469801C0469A3E9A04C04698F1
:1008100001C0469A3E9880916C00806480936C0081
:1008200080E00895ECE6F0E080818F7B808308957E
:10083000E8E6F0E08081846080830895E8E6F0E0F7
:1008400080818B7F80830895DA9A0895823091F0B9
:10085000833028F4882349F0813029F408C083309C
:1008600059F08F3F59F081E00895589801C0589A87
:10087000509A04C0589801C0589A509880916D00C1
:10088000816080936D0080E00895EDE6F0E0808166
:100890008E7F80830895823091F0833028F48823FE
:1008A00049F0813029F408C0833059F08F3F59F066
:1008B00081E00895599801C0599A519A04C05998F5
:1008C00001C0599A519880916D00826080936D00AB
:1008D00080E00895EDE6F0E080818D7F80830895CB
:1008E000823091F0833028F4882349F0813029F454
:1008F00008C0833059F08F3F59F081E008955A982D
:1009000001C05A9A529A04C05A9801C05A9A5298F1
:1009100080916D00846080936D0080E00895EDE625
:10092000F0E080818B7F80830895823091F0833066
:1009300028F4882349F0813029F408C0833059F025
:100940008F3F59F081E008955B9801C05B9A539AFC
:1009500004C05B9801C05B9A539880916D008860D9
:1009600080936D0080E00895EDE6F0E08081877F60
:1009700080830895823091F0833028F4882349F0F1
:10098000813029F408C0833059F08F3F59F081E05D
:1009900008955C9801C05C9A549A04C05C9801C0A8
:1009A0005C9A549880916D00806180936D0080E026
:1009B0000895EDE6F0E080818F7E80830895823097
:1009C00091F0833028F4882349F0813029F408C05D
:1009D000833059F08F3F59F081E008955D9801C050
:1009E0005D9A559A04C05D9801C05D9A55988091B2
:1009F0006D00806280936D0080E00895EDE6F0E088
:100A000080818F7D80830895823091F0833028F437
:100A1000882349F0813029F408C0833059F08F3F92
:100A200059F081E008955E9801C05E9A569A04C01C
:100A30005E9801C05E9A569880916D0080648093A4
:100A40006D0080E00895EDE6F0E080818F7B80838B
:100A50000895823091F0833028F4882349F0813062
:100A600029F408C0833059F08F3F59F081E0089590
:100A70005F9801C05F9A579A04C05F9801C05F9A5F
:100A8000579880916D00806880936D0080E0089594
:100A9000EDE6F0E080818F778083089524B595B5E9
:100AA0006F3F29F1987F6430D9F0653048F46130A8
:100AB00089F06130E0F0623079F0633049F40EC0C3
:100AC000663091F0663070F0673081F06F3F79F0FA
:100AD00083E0089591600BC0926009C0936007C0E5
:100AE000946005C0956003C0966001C097608F3F19
:100AF000D1F02C7F977F8330A9F0843028F48130A7
:100B000071F0823048F40FC0873059F08F3F59F0B0
:100B1000853021F084E00895226005C0986021604E
:100B200002C09860236024BD95BD80E0089594B50F
:100B30008F3FA1F09F73823071F0833028F48823B7
:100B400069F0813021F505C0833039F08F3FF9F429
:100B500005C0906403C0906801C0906C6F3FA1F025
:100B60009F7C823071F0833028F4882369F08130D3
:100B700071F405C0833039F08F3F49F405C09061AE
:100B800003C0906201C0906394BD80E0089581E04D
:100B90000895EEE6F0E08081816080830895EEE6BE
:100BA000F0E080818E7F80830895A89A0895EEE614
:100BB000F0E08081826080830895EEE6F0E080813D
:100BC0008D7F80830895A99A0895EEE6F0E08081F4
:100BD000846080830895EEE6F0E080818B7F8083DF
:100BE0000895AA9A089585B5806885BD089585B54C
:100BF000806485BD089586BD089586B5089587BD36
:100C0000089587B5089588BD089588B50895282F5B
:100C100030918000909181006F3F11F0987F962B6A
:100C20002F3FA1F0822F86958695869580FF02C082
:100C3000906101C09F7E822F8695869580FF02C0BD
:100C4000986001C0977F23703C7F322B30938000E7
:100C50009093810080E00895909180008F3F31F063
:100C60008295880F880F807C9F73982B6F3F31F09F
:100C7000892F8F7C962F9295907F982B9093800050
:100C800080E00895E1E8F0E090819F73982B9083D5
:100C900080E00895EFE6F0E080818160808380E06D
:100CA0000895EFE6F0E080818E7F808380E00895F4
:100CB000B09A80E00895EFE6F0E080818260808362
:100CC00080E00895EFE6F0E080818D7F808380E012
:100CD0000895B19A80E00895EFE6F0E080818460A5
:100CE000808380E00895EFE6F0E080818B7F808351
:100CF00080E00895B29A80E00895EFE6F0E0808108
:100D00008062808380E00895EFE6F0E080818F7D4F
:100D1000808380E00895B59A80E00895E2E8F0E0ED
:100D200080818068808380E00895E2E8F0E080813F
:100D30008064808380E008952FB7F89490938500B5
:100D4000809384002FBF80E008952091840030912B
:100D50008500C90108952FB7F89490938900809376
:100D600088002FBF80E0089520918800309189008D
:100D7000C90108952FB7F89490938B0080938A004F
:100D80002FBF80E0089520918A0030918B00C90127
:100D900008952FB7F89490938700809386002FBF13
:100DA00080E008952091860030918700C901089560
:100DB000382F2091B0009091B1006F3F11F0987FD3
:100DC000962B3F3F59F0832F8695869580FF02C072
:100DD000986001C0977F33702C7F232B2093B00045
:100DE0009093B10080E008959091B0008F3F31F072
:100DF0008295880F880F807C9F73982B6F3F31F00E
:100E0000892F8F7C962F9295907F982B9093B0008E
:100E100080E00895E0E7F0E080818160808380E0F9
:100E20000895E0E7F0E080818E7F808380E0089580
:100E3000B89A80E00895E0E7F0E0808182608083E6
:100E400080E00895E0E7F0E080818D7F808380E09E
:100E50000895B99A80E00895E0E7F0E08081846029
:100E6000808380E00895E0E7F0E080818B7F8083DD
:100E700080E00895BA9A80E00895E1EBF0E0808187
:100E80008068808380E00895E1EBF0E080818064F9
:100E9000808380E008958093B20080E0089580917F
:100EA000B20008958093B30080E008958091B3006C
:100EB00008958093B40080E008958091B40008956F
:100EC000982F6F3F51F080917C006295660F660FFE
:100ED000607C8F73862B80937C004F3F31F0809134
:100EE0007A00887F842B80937A009F3F39F0992382
:100EF00039F480917A008F7D80937A0080E00895A4
:100F000080917B00887F9530B9F0963038F493302B
:100F100079F0943078F4923039F408C0973081F049
:100F2000973060F0983071F087E0089581600BC0D1
:100F3000826009C0836007C0846005C0856003C00B
:100F4000866001C0876080937B0080917A00806218
:100F500080937A0080E00895ECE7F0E09081907F44
:100F6000982B908380E00895EEE7F0E090818095E3
:100F70009823908380E00895EEE7F0E09081982B2D
:100F8000908380E00895882321F480917C00806222
:100F900003C080917C008F7D80937C0080E0089569
:100FA000EAE7F0E080818068808380E00895EAE7E6
:100FB000F0E080818F77808380E00895EAE7F0E0B9
:100FC00080818061808380E00895EAE7F0E080819D
:100FD0008860808380E00895EAE7F0E08081877F81
:100FE000808380E00895EAE7F0E080818064808378
:100FF00080E0089580917A0082958695869581702B
:10100000089580917A0086FDFCCF80E008958F924C
:101010009F92AF92BF92CF92DF92EF92FF920F9387
:101020005A016B019E2D3091C0003091C10030916A
:10103000C2009F3F21F0923010F087E05FC00F3F69
:1010400019F0033008F059C02F3F19F0253008F08F
:1010500054C08F3F89F48091C20082958695869511
:10106000837031F0833011F484E006C080E004C066
:101070008091C000869581709FEFA9169FEFB906F9
:101080009FEFC9069FEFD906B1F1813091F0813011
:1010900058F0843099F088249924AA24BB24CC24C5
:1010A000DD24EE24FF241BC060E472E48FE090E0B6
:1010B00009C060E874E88EE190E004C060E072E18D
:1010C0008AE790E0A60195010E943A0A215030403B
:1010D0004040504049015A01CC24DD24760194015E
:1010E000A501B601C70108E00E945E0A2F70209397
:1010F000C5008092C40080E001C085E00F91FF90A0
:10110000EF90DF90CF90BF90AF909F908F90089519
:10111000E1ECF0E080818061808380E00895E1EC83
:10112000F0E080818F7E808380E00895E1ECF0E044
:1011300080818860808380E00895E1ECF0E0808128
:10114000877F808380E00895E1ECF0E08081806813
:10115000808380E00895E1ECF0E080818F778083E8
:1011600080E00895E1ECF0E080818064808380E09D
:101170000895E1ECF0E080818F7B808380E008952A
:10118000E1ECF0E080818062808380E00895E1EC12
:10119000F0E080818F7D808380E008958DE091E094
:1011A00090935A018093590190935801809357016D
:1011B000909356018093550180E008958091C0007E
:1011C000881F8827881F08958091C0008295869582
:1011D0008695817008958091C00082958695817072
:1011E00008958091C00082958F7080FF02C092E0C8
:1011F00001C090E08091C00086958695869580FD1F
:1012000094608091C0008695869580FD98609923B2
:1012100009F491E0892F0895982F8091C00085FFEF
:10122000FCCF9093C60080E008959C018091C0009F
:1012300085FFFCCFC90180709170992321F08091C6
:10124000C100816003C08091C1008E7F8093C10086
:101250002093C60080E00895982F8091C00085FFFC
:10126000FCCF9093C60080E008958091C00087FF76
:10127000FCCF8091C0008091C60008958091C0008D
:1012800087FFFCCF8091C0002091C1008091C600F3
:1012900030E0227030703695322F2227379527950F
:1012A00090E0282B392BC90108958091C00087FF59
:1012B000FCCF8091C60090E0089502C08091C600E6
:1012C0008091C00087FDFACF08951F93CF93DF93DD
:1012D000182F80915201C82FD0E02196BE01882797
:1012E00077FD8095982F219722E330E040E050E091
:1012F0000E943A0A9B01AC018091540190E0A0E069
:10130000B0E0281739074A075B0751F0C05EDE4F8F
:10131000188320935201809153018F5F8093530172
:10132000DF91CF911F9108950F931F9380915401E6
:10133000282F30E0F901E05EFE4F0081109153014B
:10134000112391F02F5F3F4FB901882777FD8095DA
:10135000982F22E330E040E050E00E943A0A609388
:101360005401115010935301802F1F910F91089534
:1013700090E080915301882309F491E0892F08952A
:1013800060E070E080E090E0089508958EBD0DB4B7
:1013900007FCFDCF8EB508950DB407FCFDCF8EB5CB
:1013A0000895399847E061E080E00E94600781E09D
:1013B0000E94AC070E94DE070E94E5070E94D0074A
:1013C0000E94F30763E084E00E9407060E947A0609
:1013D0000E9469060E946C060E945B0620910A0129
:1013E00030910B0140E050E060E970ED83E090E067
:1013F0000E943A0AC9010E94AB06C0911D01D0E0CB
:101400000E94B4069C012C9FC0012D9F900D3C9F13
:10141000900D112464E670E00E94260ACB010E9420
:10142000BA067894219A80910501882359F0809119
:101430000401882339F080911C0190911D019813BB
:1014400002C0F1CF80E00E945300EDCFAA1BBB1B6E
:1014500051E107C0AA1FBB1FA617B70710F0A61BB4
:10146000B70B881F991F5A95A9F780959095BC01D5
:10147000CD010895A1E21A2EAA1BBB1BFD010DC0D0
:10148000AA1FBB1FEE1FFF1FA217B307E407F50734
:1014900020F0A21BB30BE40BF50B661F771F881F10
:1014A000991F1A9469F760957095809590959B01A6
:1014B000AC01BD01CF01089597FB10F81694000808
:1014C0000F93083098F00850232F342F452F562FB4
:1014D000672F782F892F902DF4CF059497958795B6
:1014E0007795679557954795379527950A95AAF764
:0814F0000F910895F894FFCF5D
:1014F8001E24463201010A5A0A64E803010000006A
:0C15080003000000002C09550900000041
:00000001FF
