:100000000C9470000C948D000C948D000C948D0059
:100010000C948D000C948D000C948D000C948D002C
:100020000C948D000C948D000C948D000C94F001B8
:100030000C9404020C948D000C948D000C948D0093
:100040000C9415020C948D000C94D3020C948D002A
:100050000C948D000C9470010C948D000C948D0008
:100060000C948D000C948D00AE0EB10EBB0EBE0E26
:10007000C10EC40EC70ECE0ED50ED80EDB0EDE0E90
:10008000E20EE70E280F500F570F5E0F690F700F2B
:100090007D0F8C0F930F9A0F0E031E031003120394
:1000A0001403160318031A031C0341073407360709
:1000B00038073A073C073E0740073C093E0940091C
:1000C000420944094609480904B6E704B6D304B610
:1000D000C704B6C302900703AC8103AC8002900052
:1000E00011241FBECFEFD8E0DEBFCDBF11E0A0E0EE
:1000F000B1E0E0E6F0E202C005900D92A633B10750
:10010000D9F721E0A6E3B1E001C01D92AD37B207F7
:10011000E1F70E94650D0C942E100C940000CF9313
:10012000C82F80910501C81718F410923D011AC01C
:10013000809104018C1720F484E680933D0112C065
:10014000C0933D010E946E089C01C29FC001C39FE5
:10015000900D112464E670E00E94AE0FCB01CF91A8
:100160000C947308CF9108950E94550B811103C020
:100170000E94330BF9CF08951F93CF93DF93EC01C7
:1001800080E40E94BB0A10E0FE01E10FF11D8081B6
:10019000882321F00E94BB0A1F5FF6CF8AE2DF911D
:1001A000CF911F910C94BB0A0F931F93CF93DF93B2
:1001B000FC019B011482CAE0D0E0CB01BE010E9489
:1001C000AE0F805D838304E610E0C901B8010E9490
:1001D000AE0FBE010E94AE0F605D6283C8EED3E039
:1001E000C901BE010E94AE0FB8010E94AE0F605D52
:1001F0006183C90160E177E20E94AE0FBE010E94F7
:10020000AE0F605D6083DF91CF911F910F910895D4
:100210000F931F93CF93DF93FC019B0114820AE09D
:1002200010E0CB01B8010E94AE0F805D8383C4E66D
:10023000D0E0C901BE010E94AE0FB8010E94AE0F0E
:10024000605D6283C90168EE73E00E94AE0FBE017B
:100250000E94AE0F605D618380E38083DF91CF9168
:100260001F910F910895FC01238130E02053310943
:10027000808190E0C09768EE73E0869FA001879F21
:10028000500D969F500D1124240F351F818190E051
:10029000C09764E6689FA001699F500D1124240F48
:1002A000351F428150E0405351096AE0649FC0010C
:1002B000659F900D1124820F931F0895FC01838187
:1002C00080539181905324E6929F800D1124928156
:1002D000990F9056292F220F220F290F820F089570
:1002E0001F920F920FB60F9211242F933F934F93AB
:1002F0005F936F937F938F939F93AF93BF93EF938E
:10030000FF93809137018130B1F108F447C082300A
:1003100021F1833009F04AC0409178005091790072
:1003200020913F01309140016AE0649FC001659FC8
:10033000900D112465E170E00E94AE0F621B730BFB
:100340007695679576956795620F731F7093400158
:1003500060933F01109237012CC0809178009091FA
:10036000790065E070E00E94AE0F70933C016093ED
:100370003B0181E01CC0809138018C70883061F4B1
:1003800080917800909179006AE070E00E94AE0F51
:1003900086E6861B8093360183E009C08091780051
:1003A000909179009695879580933E0182E08093A5
:1003B0003701809137010E9454090E949B09FF91E7
:1003C000EF91BF91AF919F918F917F916F915F91CD
:1003D0004F913F912F910F900FBE0F901F90189546
:1003E0001F920F920FB60F9211248F9380913D01AF
:1003F000882321F0809141018111299A8F910F90DA
:100400000FBE0F901F9018951F920F920FB60F926C
:1004100011248F9380913D01843608F429988F919F
:100420000F900FBE0F901F9018951F920F920FB64E
:100430000F9211242F933F934F935F936F937F936A
:100440008F939F93AF93BF93EF93FF938091380166
:10045000982F9C70983089F499B195FB992790F961
:1004600021E0922790FB84F98093380199B192950D
:100470009170922790FB85F914C0911114C090914E
:10048000070191509093070191110DC09CE3909347
:10049000070186FD05C010924101837F886001C07D
:1004A0008F7B80933801809138018073803119F0FF
:1004B000109241010DC0909136018091050198176D
:1004C00038F480914101811103C081E080934101A2
:1004D0008091410190913D01882369F1809136011D
:1004E000981771F1981720F560910501482F50E099
:1004F000262F30E02B5F3F4F24173507CCF4209197
:1005000008013091090121503109309309012093EC
:100510000801232BA9F423E030E030930901209354
:100520000801911102C0862F09C081E0890F06C021
:10053000891730F403C0992319F080E00E948F00DE
:1005400080913D01909105018917E0F0209106010D
:1005500030E040913B0150913C012417350750F0A9
:100560002091000130E040913F015091400142173D
:10057000530740F4843619F48091040101C083507C
:100580000E948F00FF91EF91BF91AF919F918F914A
:100590007F916F915F914F913F912F910F900FBE7F
:1005A0000F901F9018951F920F920FB60F92112463
:1005B0002F933F934F935F936F937F938F939F936B
:1005C000AF93BF93EF93FF938091C6000E94030BFC
:1005D000FF91EF91BF91AF919F918F917F916F911B
:1005E0005F914F913F912F910F900FBE0F901F90F1
:1005F00018958091C00087FFFCCF8091C60090E0E5
:10060000089578940895F894089590E089309105BC
:1006100000F5FC01E45BFF4F0C94F80F80E00FC085
:1006200082E00DC083E00BC084E009C085E007C014
:1006300086E005C087E003C088E001C081E09FB785
:10064000F89420E820936100809361009FBF80E0D0
:10065000089587E008952FB330E1839FC0011124EE
:100660002F7C282B2FBB0895FB9A0895FB980895A3
:10067000F999FECF27B7937092BD81BD60BD8FB74A
:10068000F894FA9AF99A8FBF0895F999FECF93706A
:1006900092BD81BDF89A80B5089585B78F7E85BFDC
:1006A000089585B7806185BF0895823079F030F470
:1006B000882349F0813011F55A9A06C0833041F001
:1006C0008F3F41F01BC05A98529A04C05A9801C0FB
:1006D0005A9A52986F3FA1F0809169008C7F6130E7
:1006E00039F048F0623031F0633061F4836003C068
:1006F000816001C082608093690002C081E008953A
:1007000080E0089582E00895E89A0895E8980895B1
:10071000E09A0895823079F030F4882349F08130EE
:1007200011F55B9A06C0833041F08F3F41F01BC04A
:100730005B98539A04C05B9801C05B9A53986F3FD3
:10074000A1F080916900837F613039F048F0623018
:1007500031F0633061F48C6003C0846001C0886054
:100760008093690002C081E0089580E0089582E0EE
:100770000895E99A0895E9980895E19A0895E8E6B8
:10078000F0E08081816080830895E8E6F0E0808178
:100790008E7F80830895D89A0895823079F030F45E
:1007A000882349F08130A9F4289A06C0833041F0AB
:1007B0008F3F41F00EC02898209A04C0289801C0AD
:1007C000289A209880916B00816080936B0080E074
:1007D000089581E00895EBE6F0E080818E7F8083CC
:1007E0000895823079F030F4882349F08130A9F4FB
:1007F000299A06C0833041F08F3F41F00EC02998FE
:10080000219A04C0299801C0299A219880916B00EF
:10081000826080936B0080E0089581E00895EBE6AC
:10082000F0E080818D7F80830895823079F030F40C
:10083000882349F08130A9F42A9A06C0833041F018
:100840008F3F41F00EC02A98229A04C02A9801C016
:100850002A9A229880916B00846080936B0080E0DC
:10086000089581E00895EBE6F0E080818B7F80833E
:100870000895823079F030F4882349F08130A9F46A
:100880002B9A06C0833041F08F3F41F00EC02B9869
:10089000239A04C02B9801C02B9A239880916B0057
:1008A000886080936B0080E0089581E00895EBE616
:1008B000F0E08081877F80830895823079F030F482
:1008C000882349F08130A9F42C9A06C0833041F086
:1008D0008F3F41F00EC02C98249A04C02C9801C080
:1008E0002C9A249880916B00806180936B0080E04B
:1008F000089581E00895EBE6F0E080818F7E8083AB
:100900000895823079F030F4882349F08130A9F4D9
:100910002D9A06C0833041F08F3F41F00EC02D98D4
:10092000259A04C02D9801C02D9A259880916B00BE
:10093000806280936B0080E0089581E00895EBE68B
:10094000F0E080818F7D80830895823079F030F4EB
:10095000882349F08130A9F42E9A06C0833041F0F3
:100960008F3F41F00EC02E98269A04C02E9801C0E9
:100970002E9A269880916B00806480936B0080E0B3
:10098000089581E00895EBE6F0E080818F7B80831D
:100990000895823079F030F4882349F08130A9F449
:1009A0002F9A06C0833041F08F3F41F00EC02F9840
:1009B000279A04C02F9801C02F9A279880916B0026
:1009C000806880936B0080E0089581E00895EBE6F5
:1009D000F0E080818F7780830895E8E6F0E0808101
:1009E000826080830895E8E6F0E080818D7F8083D7
:1009F0000895D99A0895823079F030F4882349F027
:100A00008130A9F4409A06C0833041F08F3F41F015
:100A10000EC04098389A04C0409801C0409A389857
:100A200080916C00816080936C0080E0089581E08B
:100A30000895ECE6F0E080818E7F80830895823017
:100A400079F030F4882349F08130A9F4419A06C046
:100A5000833041F08F3F41F00EC04198399A04C075
:100A6000419801C0419A399880916C0082608093CE
:100A70006C0080E0089581E00895ECE6F0E080816C
:100A80008D7F80830895823079F030F4882349F097
:100A90008130A9F4429A06C0833041F08F3F41F083
:100AA0000EC042983A9A04C0429801C0429A3A98BD
:100AB00080916C00846080936C0080E0089581E0F8
:100AC0000895ECE6F0E080818B7F8083089582308A
:100AD00079F030F4882349F08130A9F4439A06C0B4
:100AE000833041F08F3F41F00EC043983B9A04C0E1
:100AF000439801C0439A3B9880916C008860809332
:100B00006C0080E0089581E00895ECE6F0E08081DB
:100B1000877F80830895823079F030F4882349F00C
:100B20008130A9F4449A06C0833041F08F3F41F0F0
:100B30000EC044983C9A04C0449801C0449A3C9822
:100B400080916C00806180936C0080E0089581E06A
:100B50000895ECE6F0E080818F7E808308958230F6
:100B600079F030F4882349F08130A9F4459A06C021
:100B7000833041F08F3F41F00EC045983D9A04C04C
:100B8000459801C0459A3D9880916C0080628093A1
:100B90006C0080E0089581E00895ECE6F0E080814B
:100BA0008F7D80830895823079F030F4882349F076
:100BB0008130A9F4469A06C0833041F08F3F41F05E
:100BC0000EC046983E9A04C0469801C0469A3E9888
:100BD00080916C00806480936C0080E0089581E0D7
:100BE0000895ECE6F0E080818F7B80830895E8E64D
:100BF000F0E08081846080830895E8E6F0E0808101
:100C00008B7F80830895DA9A0895823079F030F4EA
:100C1000882349F08130A9F4589A06C0833041F006
:100C20008F3F41F00EC05898509A04C0589801C0A8
:100C3000589A509880916D00816080936D0080E09B
:100C4000089581E00895EDE6F0E080818E7F808355
:100C50000895823079F030F4882349F08130A9F486
:100C6000599A06C0833041F08F3F41F00EC0599829
:100C7000519A04C0599801C0599A519880916D00B9
:100C8000826080936D0080E0089581E00895EDE634
:100C9000F0E080818D7F80830895823079F030F498
:100CA000882349F08130A9F45A9A06C0833041F074
:100CB0008F3F41F00EC05A98529A04C05A9801C012
:100CC0005A9A529880916D00846080936D0080E004
:100CD000089581E00895EDE6F0E080818B7F8083C8
:100CE0000895823079F030F4882349F08130A9F4F6
:100CF0005B9A06C0833041F08F3F41F00EC05B9895
:100D0000539A04C05B9801C05B9A539880916D0020
:100D1000886080936D0080E0089581E00895EDE69D
:100D2000F0E08081877F80830895823079F030F40D
:100D3000882349F08130A9F45C9A06C0833041F0E1
:100D40008F3F41F00EC05C98549A04C05C9801C07B
:100D50005C9A549880916D00806180936D0080E072
:100D6000089581E00895EDE6F0E080818F7E808334
:100D70000895823079F030F4882349F08130A9F465
:100D80005D9A06C0833041F08F3F41F00EC05D9800
:100D9000559A04C05D9801C05D9A559880916D0088
:100DA000806280936D0080E0089581E00895EDE613
:100DB000F0E080818F7D80830895823079F030F477
:100DC000882349F08130A9F45E9A06C0833041F04F
:100DD0008F3F41F00EC05E98569A04C05E9801C0E5
:100DE0005E9A569880916D00806480936D0080E0DB
:100DF000089581E00895EDE6F0E080818F7B8083A7
:100E00000895823079F030F4882349F08130A9F4D4
:100E10005F9A06C0833041F08F3F41F00EC05F986B
:100E2000579A04C05F9801C05F9A579880916D00EF
:100E3000806880936D0080E0089581E00895EDE67C
:100E4000F0E080818F778083089524B595B56F3F5A
:100E5000C1F0987F462F50E04830510580F5FA01E7
:100E6000EB5AFF4F0C94F80F91600BC0926009C0D1
:100E7000936007C0946005C0956003C0966001C090
:100E800097608F3FC1F02C7F977F823069F028F404
:100E9000882389F0813059F014C0853039F08730CB
:100EA00041F0833071F406C0226005C09860216073
:100EB00002C09860236024BD95BD80E0089583E062
:100EC000089584E0089594B58F3F69F09F73813051
:100ED00039F048F0823031F08330E1F4906C03C097
:100EE000906401C090686F3F91F09F7C823061F008
:100EF00030F4882361F0813069F4906108C0833058
:100F000029F08F3F21F006C0906201C0906394BD2C
:100F100080E0089581E00895EEE6F0E08081816050
:100F200080830895EEE6F0E080818E7F80830895CF
:100F3000A89A0895EEE6F0E08081826080830895AB
:100F4000EEE6F0E080818D7F80830895A99A089570
:100F5000EEE6F0E08081846080830895EEE6F0E0C4
:100F600080818B7F80830895AA9A089585B58068D3
:100F700085BD089585B5806485BD089586BD0895B5
:100F800086B5089587BD089587B5089588BD0895ED
:100F900088B5089520918000909181006F3F11F0F5
:100FA000987F962B8F3F69F083FF02C0906101C04C
:100FB0009F7E82FF02C0986001C0977F83702C7F64
:100FC000282B209380009093810080E00895209149
:100FD00080008F3F31F030E4839FC00111242F73D4
:100FE000282B6F3F31F02F7C80E1689FB0011124E6
:100FF000262B2093800080E00895E1E8F0E09081C6
:101000009F73982B908380E00895EFE6F0E0808155
:101010008160808380E00895EFE6F0E080818E7F3C
:10102000808380E00895B09A80E00895EFE6F0E0D4
:1010300080818260808380E00895EFE6F0E0808127
:101040008D7F808380E00895B19A80E00895EFE677
:10105000F0E080818460808380E00895EFE6F0E036
:1010600080818B7F808380E00895B29A80E008952C
:10107000EFE6F0E080818062808380E00895EFE613
:10108000F0E080818F7D808380E00895B59A80E0D4
:101090000895E2E8F0E080818068808380E0089530
:1010A000E2E8F0E080818064808380E008952FB7DB
:1010B000F89490938500809384002FBF80E008957A
:1010C000809184009091850008952FB7F8949093B3
:1010D0008900809388002FBF80E008958091880068
:1010E0009091890008952FB7F89490938B00809386
:1010F0008A002FBF80E0089580918A0090918B0034
:1011000008952FB7F89490938700809386002FBF9F
:1011100080E0089580918600909187000895209145
:10112000B0009091B1006F3F11F0987F962B8F3FE8
:1011300041F082FF02C0986001C0977F83702C7FCE
:10114000282B2093B0009093B10080E00895209167
:10115000B0008F3F31F030E4839FC00111242F7322
:10116000282B6F3F31F02F7C80E1689FB001112464
:10117000262B2093B00080E00895E0E7F0E0808126
:101180008160808380E00895E0E7F0E080818E7FD9
:10119000808380E00895B89A80E00895E0E7F0E069
:1011A00080818260808380E00895E0E7F0E08081C4
:1011B0008D7F808380E00895B99A80E00895E0E70C
:1011C000F0E080818460808380E00895E0E7F0E0D3
:1011D00080818B7F808380E00895BA9A80E00895B3
:1011E000E1EBF0E080818068808380E00895E1EBAE
:1011F000F0E080818064808380E008958093B20075
:1012000080E008958091B20008958093B30080E05B
:1012100008958091B30008958093B40080E008950C
:101220008091B40008956F3F51F090917C0020E4CC
:10123000629FB00111249F73962B90937C004F3FC7
:1012400031F090917A00987F942B90937A008F3FA1
:1012500039F1811104C080917A008F7D1FC02091E7
:101260007B00287F90E0FC013297E730F105D0F455
:10127000E35AFF4F0C94F80F21600BC0226009C0A5
:10128000236007C0246005C0256003C0266001C03C
:10129000276020937B0080917A00806280937A009F
:1012A00080E0089587E00895ECE7F0E09081907F7A
:1012B000982B908380E00895EEE7F0E09081809590
:1012C0008923808380E00895EEE7F0E09081982BF9
:1012D000908380E00895811104C080917C00806239
:1012E00003C080917C008F7D80937C0080E0089516
:1012F000EAE7F0E080818068808380E00895EAE793
:10130000F0E080818F77808380E00895EAE7F0E065
:1013100080818061808380E00895EAE7F0E0808149
:101320008860808380E00895EAE7F0E08081877F2D
:10133000808380E00895EAE7F0E080818064808324
:1013400080E0089580917A0086FB882780F90895CF
:1013500080917A0086FDFCCF80E008958F929F9265
:10136000AF92BF92CF92DF92EF92FF920F934A011A
:101370005B019E2D3091C0003091C1003091C200C0
:101380009F3F19F0923008F05FC00F3F19F0033013
:1013900008F05CC02F3F19F0253008F057C08F3F90
:1013A00079F48091C200829586958695837021F0AC
:1013B0008330E9F080E004C08091C00086958170A0
:1013C0009FEF89169906A906B90609F441C0813034
:1013D00049F018F0843089F022C060E472E48FE0B4
:1013E00090E00FC060E874E88EE190E00AC08FEFF3
:1013F00088169806A806B80659F160E072E18AE7F7
:1014000090E0A50194010E94D60F215031094109B5
:10141000510949015A01C12CD12C760108C0812CF7
:10142000912CA12CB12CC12CD12CE12CF12C9401AC
:10143000A501B601C70108E00E9400102F7020939B
:10144000C5008092C40004C087E003C085E001C0ED
:1014500080E00F91FF90EF90DF90CF90BF90AF9022
:101460009F908F900895E1ECF0E08081806180830F
:1014700080E00895E1ECF0E080818F7E808380E061
:101480000895E1ECF0E080818860808380E0089539
:10149000E1ECF0E08081877F808380E00895E1ECDB
:1014A000F0E080818068808380E00895E1ECF0E0E6
:1014B00080818F77808380E00895E1ECF0E0808187
:1014C0008064808380E00895E1ECF0E080818F7B90
:1014D000808380E00895E1ECF0E080818062808389
:1014E00080E00895E1ECF0E080818F7D808380E0F2
:1014F00008958AE091E090937C0180937B01909322
:101500007A0180937901909378018093770180E04C
:1015100008958091C000881F8827881F08958091B2
:10152000C00086FB882780F908958091C00085FB64
:10153000882780F90895CF93C82F0E94950A8823A1
:10154000E1F3C093C60080E0CF9108958091C00080
:1015500084FD02C080E001C082E09091C00093FD54
:1015600084609091C00092FF02C08860089581114C
:1015700001C081E00895CF93C82F0E94950A882367
:10158000E1F3C093C60080E0CF910895CF93DF933D
:10159000EC010E94950A8823E1F3CE01882791701F
:1015A0008091C100992311F0816001C08E7F8093EA
:1015B000C100C093C60080E0DF91CF910895809173
:1015C000C00087FFFCCF8091C0008091C6000895C5
:1015D0008091C00087FFFCCF8091C0008091C10046
:1015E0002091C600827090E09695982F8827979555
:1015F0008795822B08958091C00087FF03C080915A
:10160000C600F9CF0895FF920F931F93CF93DF93F6
:10161000F82EC0917401D0E0BE016F5F7F4F882724
:1016200077FD8095982F22E330E040E050E00E9463
:10163000D60F0091760110E020E030E060177107CE
:101640008207930751F0CE5BDE4FF88260937401FE
:10165000809175018F5F80937501DF91CF911F910C
:101660000F91FF900895CF93DF936091760170E022
:10167000FB01EE5BFE4FD081C0917501CC2389F058
:101680006F5F7F4F882777FD8095982F22E330E0AA
:1016900040E050E00E94D60F60937601C150C093A5
:1016A00075018D2FDF91CF91089581E090917501A3
:1016B000911180E0089560E070E0CB0108950895F5
:1016C0008EBD0DB407FCFDCF8EB508950DB407FC9B
:1016D000FDCF8EB508951F93CF93DF931F92CDB7A3
:1016E000DEB7182F2A9882E069830E94300C812F80
:1016F0000E94300C6981862F0E94300C2A9A0F902C
:10170000DF91CF911F910895CF93C82F2A9883E03E
:101710000E94300C8C2F0E94300C8FEF0E94300CF6
:101720002A9ACF9108951F93CF93DF9300D0CDB71E
:10173000DEB7182F2A9885E04A8369830E94300C0F
:10174000812F0E94300C6981862F0E94300C4A81C3
:10175000842F0E94300C2A9A0F900F90DF91CF9126
:101760001F9108952A980E94300C8FEF0E94300C30
:101770002A9A0895EF92FF920F931F93CF93DF93CE
:10178000082F883010F080E05FC02A9A229A2D98A6
:101790002B982C98259A239A24980E942B0C2A98EF
:1017A00080EC0E94300C8FE99FE00197F1F700C0B8
:1017B00000002A9A8FE39CE90197F1F700C000002E
:1017C0002A9882E00E94300C88E20E94300C10E0DF
:1017D000E801CC0FDD1FC00FD11FE12CF12CC85345
:1017E000DF4FFE01EE0DFF1D84910E94300C9FEF34
:1017F000E91AF90A83E0E816F10499F783E00E94F8
:10180000300C2A9A60E08DE00E946B0B3898409A69
:1018100060E08CE00E946B0B89E20E94840BD82F61
:10182000F801EE0FFF1FE00FF11FE753FF4FC491C8
:1018300060E08FE00E946B0BDC13A5CF8EE00E946E
:10184000840B807ED9F781E0DF91CF911F910F91BA
:10185000FF90EF90089581E58CBD81E08DBD0895E6
:101860008EBD0DB407FEFDCF8EB50895CF93DF93E7
:10187000882331F0813031F0833031F0C0E005C091
:10188000C0E603C0C0E401C0C0E24C2F60EE8FE0B0
:101890000E94930BD0E08EE00E94840B807E90E04B
:1018A0008C179D07C1F7DF91CF910895DF92EF92DA
:1018B000FF920F931F93CF93DF93EC0180EB0E9475
:1018C000B20BE82E8074F82EE6FC04C0E7FE43C09D
:1018D00084E901C080E92A980E94300CCE010E9460
:1018E000B40C80FF0FC02A9A40E0FF2031F061E085
:1018F0008CE20E94930BF12C2EC062E08CE20E94DD
:10190000930B29C08FEF0E94300CE3FA222720F9B5
:101910009A8120FB90F99A838F70D82E8B8300E0F8
:1019200010E00D1550F48FEF0E94300CFE01E00F17
:10193000F11F84830F5F1F4FF4CF2A9A40E0FF20EE
:1019400011F061E001C062E08CE20E94930B8E2DE9
:101950008770F82EF3948F2DDF91CF911F910F9107
:10196000FF90EF90DF9008951F93CF93DF93EC01EA
:101970008FEF0E94300C182F8FEF0E94300C982FA1
:101980008FEF93FF07C00E94300C8FEF0E94300C46
:1019900081E01CC08EBD88E0189F9001112439831E
:1019A00028830DB407FEFDCF8EB58FEF8EBD8881E5
:1019B000292F229526952770822B88830DB407FE48
:1019C000FDCF8EB5892F807194FD82E0DF91CF919C
:1019D0001F91089586B180958170089580EA0E94D4
:1019E000B20B982F947581E0943509F480E0089546
:1019F000FC012081318183E0369527958A95E1F7B6
:101A00002EBD80818295880F807E0DB407FEFDCFAC
:101A10009EB50E94300C80E00E94300C80E00C9457
:101A2000300CEF92FF920F931F93CF93DF93EC0153
:101A300080EA0E94B20B82FF07C084FF07C086FDC8
:101A40003CC094E0F92E04C0F12C02C082E0F82ED4
:101A50002A988F2D80640E94300CCE010E94F80CD1
:101A6000EB808E2D8F70E82E8A8180FF05C08E2D31
:101A700080640E94300C10C08E2D0E94300C00E05B
:101A800010E00E1548F4FE01E00FF11F84810E9462
:101A9000300C0F5F1F4FF5CF2A9A85E08A95F1F73A
:101AA00000002A98F11002C0FF24F3948F2D806863
:101AB0000E94300C2A9A8F2D01C080E0DF91CF91D7
:101AC0001F910F91FF90EF900895CF93DF93CDB7C3
:101AD000DEB7CA5AD1090FB6F894DEBF0FBECDBF2C
:101AE00080913801837F88608093380188EE93E08D
:101AF00090933A01809339011092410110923D0177
:101B00001092400110923F0119821A821B821C829E
:101B1000FE01359680E6DF011D928A95E9F7CD55E5
:101B2000DF4F188219821A821B82C35AD040C955CE
:101B3000DF4F188219821A821B82C75AD040399807
:101B400053985B9847E061E080E00E94130981E0D0
:101B50000E9454090E9486090E948D090E947809FA
:101B60000E949B0963E084E00E94CA070E94350836
:101B70000E9424080E9427080E941608209139011B
:101B800030913A0140E050E060E970ED83E090E090
:101B90000E94D60FC9010E94650800913D0110E026
:101BA0000E946E089C01209FC001219F900D309FD4
:101BB000900D112464E670E00E94AE0FCB010E94EC
:101BC000730865E080E00E9425070E9498070E9444
:101BD0008C07E12C00E023E040E855E260E070E093
:101BE00080E00E94AE090E94330A0E94410A0E94CE
:101BF0004F0A84E00E94BA0B82E00E94360C219AC0
:101C00005D9A5C9A419A3D9A459A3C9A449A3FEF74
:101C100083ED90E3315080409040E1F700C0000038
:101C200044987894912C0FEF13E039E0E32E3DE3D4
:101C3000F32E0E94EA0C882309F443C0CE01895692
:101C40009F4F0E94560CC956DF4F88819981C75912
:101C5000D04081159043A9F580913801982F9C7050
:101C600029F010924101837F8093380190913801CF
:101C7000C456DF4F8881CC59D040282F206490640F
:101C800020FB95F9282F206220FB94F990933801CE
:101C9000837090E0982F8827C556DF4F2881CB5955
:101CA000D040822B9801281B390BC9016AE070E0F3
:101CB0000E94C20F60933601CE0189569F4F0E9449
:101CC000110D88EEC82E83E0D82E94EFA92EBB24E8
:101CD000B3940E94550B8111ACCF88248394890C56
:101CE0000E94330BE5E6F0E0EC0FFD1FE90DF11D5E
:101CF0008083E5E6F0E0EC0FFD1FE80DF11D319764
:101D000080818A3211F0982CE4CFA6968FADA697E9
:101D1000803409F01FC1BE016B597F4FCE0101967F
:101D20000E9427108B8180539A81990F9056292FFA
:101D3000220F220F290F820F34E083126CC02A81F8
:101D40003B813A8329831B8290E08E30910508F015
:101D500048C0FC01EC5CFF4F0C94F80F68E171E0A7
:101D600042C06091390170913A01CE018D559F4F6B
:101D70000E94D4003DC06091060122C06091040120
:101D80001FC0609105011CC06091030119C08091C2
:101D9000380184FF07C06BE171E025C080913801F4
:101DA00085FDF9CF60E271E01EC06091020108C0BC
:101DB0006091000105C060913D0102C060913E014B
:101DC00070E009C060913B0170913C0104C06091DA
:101DD0003F0170914001CE018D559F4F0E94080137
:101DE00007C065E271E0CE018D559F4F0E9427101C
:101DF000BE016D557F4FCE0101960E941C10BE01A1
:101E00006F5F7F4FCE018D559F4F0E942710CE01EF
:101E10008D559F4F98C098E0891298C090913801D5
:101E20009C70943009F098C04C815D816E817F81F7
:101E300049835A836B837C831D8290E0FC01319738
:101E4000EA30F10508F07DC0EE5BFF4F0C94F80F0F
:101E5000CE0101960E943301843FA1E09A0728F445
:101E6000B0923A01A09239010DC0893EB3E09B07C0
:101E700028F0D0923A01C092390104C090933A01FF
:101E80008093390180E00E948F0060913901709148
:101E90003A01C7010E94AE0FCB010E9465085CC0E9
:101EA000CE0101960E945E018093060155C0CE01CD
:101EB00001960E945E01809304014EC0CE010196FE
:101EC0000E945E0180930501809136010E948F007F
:101ED00043C0CE0101960E945E01809303013CC085
:101EE0008C81813321F48091380180610CC0803372
:101EF00099F5809138018F7E06C08C81813331F451
:101F00008091380180628093380126C0803321F5AA
:101F1000809138018F7DF7CFCE0101960E945E013E
:101F20008093020119C0CE0101960E945E01809348
:101F3000000112C0CE0101960E945E01809336011D
:101F40000BC085E291E00E94BC0006C08AE291E0ED
:101F50000E94BC000E94B400912CBBCEAA1BBB1BEC
:101F600051E107C0AA1FBB1FA617B70710F0A61B99
:101F7000B70B881F991F5A95A9F780959095BC01BA
:101F8000CD01089597FB072E16F4009407D077FD36
:101F900009D00E94AE0F07FC05D03EF490958195C4
:101FA0009F4F0895709561957F4F0895A1E21A2E75
:101FB000AA1BBB1BFD010DC0AA1FBB1FEE1FFF1FED
:101FC000A217B307E407F50720F0A21BB30BE40B3D
:101FD000F50B661F771F881F991F1A9469F7609584
:101FE0007095809590959B01AC01BD01CF0108953E
:101FF000EE0FFF1F0590F491E02D099497FB10F868
:10200000169400080F93083098F00850232F342FAF
:10201000452F562F672F782F892F902DF4CF0594B9
:102020009795879577956795579547953795279510
:102030000A95AAF70F910895FB01DC010D9000208D
:10204000E9F7119701900D920020E1F70895FB0147
:10205000DC0101900D920020E1F70895F894FFCF84
:10206000D23C46075A05643C030000000003000010
:1020700000009B0AF90200004F4B00303030310065
:1020800030303030004552524F0077726F6E67200B
:0620900073697A6500008F
:00000001FF
