:100000000C9464000C9481000C9481000C94810089
:100010000C9481000C9481000C9481000C9481005C
:100020000C9481000C9481000C9481000C94CD01FF
:100030000C94E3010C9481000C9481000C948100D9
:100040000C94F4010C9481000C94A6020C94810091
:100050000C9481000C9466010C9481000C94810036
:100060000C9481000C9481003E0C410C4B0C4E0C06
:10007000510C540C570C5E0C650C680C6B0C6E0C20
:10008000710C740CAE0CC80CCF0CF00C0D0D140DD3
:10009000220D310D380D3F0DE102F102E302E502C0
:1000A000E702E902EB02ED02EF0214070707090776
:1000B0000B070D070F07110713070F091109130984
:1000C0001509170919091B0911241FBECFEFD8E024
:1000D000DEBFCDBF11E0A0E0B1E0E2EAFBE102C08B
:1000E00005900D92A433B107D9F711E0A4E3B1E074
:1000F00001C01D92AC37B107E1F70E943E0B0C9492
:10010000CF0D0C940000CF93C82F809334018091C1
:100110000501C81718F410923D011AC0809104011E
:100120008C1720F484E680933D0112C0C0933D01FA
:100130000E9441089C01C29FC001C39F900D1124E1
:1001400064E670E00E94630DCB01CF910C944608E9
:10015000CF9108950E94280B811103C00E94060BC5
:10016000F9CF08951F93CF93DF93EC0180E40E94B1
:100170008E0A10E0FE01E10FF11D8081882321F03D
:100180000E948E0A1F5FF6CF8AE2DF91CF911F9106
:100190000C948E0A0F931F93CF93DF93FC019B0166
:1001A0001482CAE0D0E0CB01BE010E94630D805DE5
:1001B000838304E610E0C901B8010E94630DBE010B
:1001C0000E94630D605D6283C8EED3E0C901BE0189
:1001D0000E94630DB8010E94630D605D6183C901D7
:1001E00060E177E20E94630DBE010E94630D605DD5
:1001F0006083DF91CF911F910F9108950F931F930B
:10020000CF93DF93FC019B0114820AE010E0CB0145
:10021000B8010E94630D805D8383C4E6D0E0C9010C
:10022000BE010E94630DB8010E94630D605D628390
:10023000C90168EE73E00E94630DBE010E94630D68
:10024000605D618380E38083DF91CF911F910F9187
:100250000895FC01238130E020533109808190E032
:10026000C09768EE73E0869FA001879F500D969F10
:10027000500D1124240F351F818190E0C09764E652
:10028000689FA001699F500D1124240F351F4281E2
:1002900050E0405351096AE0649FC001659F900D92
:1002A0001124820F931F0895FC0183818053918153
:1002B000905324E6929F800D11249281990F9056BD
:1002C000292F220F220F290F820F08951F920F92BC
:1002D0000FB60F9211242F933F934F935F936F9319
:1002E0007F938F939F93AF93BF93EF93FF938091EF
:1002F00007018130E1F078F0823061F18330B1F5AF
:1003000080917800909179009695879580933E0131
:10031000109207012BC0809178009091790065E0E0
:1003200070E00E94630D60933C0181E010C08091F9
:1003300039018C70883051F4809178009091790067
:100340006AE070E00E94630D6093340182E0809364
:1003500007010CC0809178009091790065E170E010
:100360000E94630D60933F0183E0F1CF809107010C
:100370000E9427090E946E09FF91EF91BF91AF91F2
:100380009F918F917F916F915F914F913F912F91AD
:100390000F900FBE0F901F9018951F920F920FB6DF
:1003A0000F9211248F9380913D01882331F0809129
:1003B00039018073803309F4299A8F910F900FBE11
:1003C0000F901F9018951F920F920FB60F92112445
:1003D0008F9380913D01843608F429988F910F9076
:1003E0000FBE0F901F9018951F920F920FB60F928D
:1003F00011242F933F934F935F936F937F938F932A
:100400009F93AF93BF93EF93FF9389B185FB8827A9
:1004100080F991E089272091390180FB24F920930C
:10042000390189B182958170892780FB25F9209354
:1004300039012073203311F0109240018091340172
:1004400060910501861728F4203319F491E0909308
:1004500040013091400190913D01332369F12033F7
:1004600059F5981771F1981720F5482F50E0262F6D
:1004700030E02B5F3F4F24173507DCF42091370124
:10048000309138012330310569F4911102C0862F73
:1004900002C081E0890F0E948300109238011092FF
:1004A00037010FC02F5F3F4F309338012093370142
:1004B00008C0891730F403C0992319F080E00E9426
:1004C000830080913D01909105019817A0F420913F
:1004D0003C0190910601921730F020913F019091DC
:1004E0000001291740F4843619F48091040101C0F9
:1004F00082500E94830090913E01809101018917F2
:1005000050F42091390120FD06C0822F8160809334
:100510003901449A0AC0981740F48091390180FF4C
:1005200004C08E7F809339014498FF91EF91BF9171
:10053000AF919F918F917F916F915F914F913F917B
:100540002F910F900FBE0F901F9018951F920F9232
:100550000FB60F9211242F933F934F935F936F9396
:100560007F938F939F93AF93BF93EF93FF9380916C
:10057000C6000E94D60AFF91EF91BF91AF919F9163
:100580008F917F916F915F914F913F912F910F903C
:100590000FBE0F901F9018958091C00087FFFCCF71
:1005A0008091C60090E0089578940895F894089595
:1005B00090E08930910500F5FC01E45BFF4F0C945D
:1005C000990D80E00FC082E00DC083E00BC084E095
:1005D00009C085E007C086E005C087E003C088E069
:1005E00001C081E09FB7F89420E8209361008093D8
:1005F00061009FBF80E0089587E008952FB330E148
:10060000839FC00111242F7C282B2FBB0895FB9AB8
:100610000895FB980895F999FECF27B7937092BD7E
:1006200081BD60BD8FB7F894FA9AF99A8FBF08958B
:10063000F999FECF937092BD81BDF89A80B5089567
:1006400085B78F7E85BF089585B7806185BF089582
:10065000823079F030F4882349F0813011F55A9ACC
:1006600006C0833041F08F3F41F01BC05A98529A28
:1006700004C05A9801C05A9A52986F3FA1F08091D5
:1006800069008C7F613039F048F0623031F06330BE
:1006900061F4836003C0816001C08260809369005F
:1006A00002C081E0089580E0089582E00895E89A0C
:1006B0000895E8980895E09A0895823079F030F42A
:1006C000882349F0813011F55B9A06C0833041F0F0
:1006D0008F3F41F01BC05B98539A04C05B9801C0E8
:1006E0005B9A53986F3FA1F080916900837F6130DE
:1006F00039F048F0623031F0633061F48C6003C04F
:10070000846001C088608093690002C081E0089520
:1007100080E0089582E00895E99A0895E99808959F
:10072000E19A0895E8E6F0E0808181608083089591
:10073000E8E6F0E080818E7F80830895D89A08955E
:10074000823079F030F4882349F08130A9F4289A76
:1007500006C0833041F08F3F41F00EC02898209AA8
:1007600004C0289801C0289A209880916B0081606D
:1007700080936B0080E0089581E00895EBE6F0E05F
:1007800080818E7F80830895823079F030F48823D1
:1007900049F08130A9F4299A06C0833041F08F3F97
:1007A00041F00EC02998219A04C0299801C0299AC5
:1007B000219880916B00826080936B0080E00895A7
:1007C00081E00895EBE6F0E080818D7F80830895DD
:1007D000823079F030F4882349F08130A9F42A9AE4
:1007E00006C0833041F08F3F41F00EC02A98229A14
:1007F00004C02A9801C02A9A229880916B008460D4
:1008000080936B0080E0089581E00895EBE6F0E0CE
:1008100080818B7F80830895823079F030F4882343
:1008200049F08130A9F42B9A06C0833041F08F3F04
:1008300041F00EC02B98239A04C02B9801C02B9A2C
:10084000239880916B00886080936B0080E008950E
:1008500081E00895EBE6F0E08081877F8083089552
:10086000823079F030F4882349F08130A9F42C9A51
:1008700006C0833041F08F3F41F00EC02C98249A7F
:1008800004C02C9801C02C9A249880916B00806140
:1008900080936B0080E0089581E00895EBE6F0E03E
:1008A00080818F7E80830895823079F030F48823B0
:1008B00049F08130A9F42D9A06C0833041F08F3F72
:1008C00041F00EC02D98259A04C02D9801C02D9A94
:1008D000259880916B00806280936B0080E0089582
:1008E00081E00895EBE6F0E080818F7D80830895BC
:1008F000823079F030F4882349F08130A9F42E9ABF
:1009000006C0833041F08F3F41F00EC02E98269AEA
:1009100004C02E9801C02E9A269880916B008064A6
:1009200080936B0080E0089581E00895EBE6F0E0AD
:1009300080818F7B80830895823079F030F4882322
:1009400049F08130A9F42F9A06C0833041F08F3FDF
:1009500041F00EC02F98279A04C02F9801C02F9AFB
:10096000279880916B00806880936B0080E00895E9
:1009700081E00895EBE6F0E080818F778083089531
:10098000E8E6F0E08081826080830895E8E6F0E0A8
:1009900080818D7F80830895D99A0895823079F07F
:1009A00030F4882349F08130A9F4409A06C083309E
:1009B00041F08F3F41F00EC04098389A04C04098F3
:1009C00001C0409A389880916C00816080936C00DF
:1009D00080E0089581E00895ECE6F0E080818E7F6C
:1009E00080830895823079F030F4882349F0813093
:1009F000A9F4419A06C0833041F08F3F41F00EC008
:100A00004198399A04C0419801C0419A399880911F
:100A10006C00826080936C0080E0089581E008950E
:100A2000ECE6F0E080818D7F80830895823079F05C
:100A300030F4882349F08130A9F4429A06C083300B
:100A400041F08F3F41F00EC042983A9A04C042985C
:100A500001C0429A3A9880916C00846080936C0047
:100A600080E0089581E00895ECE6F0E080818B7FDE
:100A700080830895823079F030F4882349F0813002
:100A8000A9F4439A06C0833041F08F3F41F00EC075
:100A900043983B9A04C0439801C0439A3B98809185
:100AA0006C00886080936C0080E0089581E0089578
:100AB000ECE6F0E08081877F80830895823079F0D2
:100AC00030F4882349F08130A9F4449A06C0833079
:100AD00041F08F3F41F00EC044983C9A04C04498C6
:100AE00001C0449A3C9880916C00806180936C00B6
:100AF00080E0089581E00895ECE6F0E080818F7E4B
:100B000080830895823079F030F4882349F0813071
:100B1000A9F4459A06C0833041F08F3F41F00EC0E2
:100B200045983D9A04C0459801C0459A3D988091EA
:100B30006C00806280936C0080E0089581E00895ED
:100B4000ECE6F0E080818F7D80830895823079F03B
:100B500030F4882349F08130A9F4469A06C08330E6
:100B600041F08F3F41F00EC046983E9A04C046982F
:100B700001C0469A3E9880916C00806480936C001E
:100B800080E0089581E00895ECE6F0E080818F7BBD
:100B900080830895E8E6F0E0808184608083089592
:100BA000E8E6F0E080818B7F80830895DA9A0895EB
:100BB000823079F030F4882349F08130A9F4589AD2
:100BC00006C0833041F08F3F41F00EC05898509AD4
:100BD00004C0589801C0589A509880916D00816067
:100BE00080936D0080E0089581E00895EDE6F0E0E7
:100BF00080818E7F80830895823079F030F488235D
:100C000049F08130A9F4599A06C0833041F08F3FF2
:100C100041F00EC05998519A04C0599801C0599A90
:100C2000519880916D00826080936D0080E00895FE
:100C300081E00895EDE6F0E080818D7F8083089566
:100C4000823079F030F4882349F08130A9F45A9A3F
:100C500006C0833041F08F3F41F00EC05A98529A3F
:100C600004C05A9801C05A9A529880916D008460CD
:100C700080936D0080E0089581E00895EDE6F0E056
:100C800080818B7F80830895823079F030F48823CF
:100C900049F08130A9F45B9A06C0833041F08F3F60
:100CA00041F00EC05B98539A04C05B9801C05B9AF8
:100CB000539880916D00886080936D0080E0089566
:100CC00081E00895EDE6F0E08081877F80830895DC
:100CD000823079F030F4882349F08130A9F45C9AAD
:100CE00006C0833041F08F3F41F00EC05C98549AAB
:100CF00004C05C9801C05C9A549880916D0080613A
:100D000080936D0080E0089581E00895EDE6F0E0C5
:100D100080818F7E80830895823079F030F488233B
:100D200049F08130A9F45D9A06C0833041F08F3FCD
:100D300041F00EC05D98559A04C05D9801C05D9A5F
:100D4000559880916D00806280936D0080E00895D9
:100D500081E00895EDE6F0E080818F7D8083089545
:100D6000823079F030F4882349F08130A9F45E9A1A
:100D700006C0833041F08F3F41F00EC05E98569A16
:100D800004C05E9801C05E9A569880916D008064A0
:100D900080936D0080E0089581E00895EDE6F0E035
:100DA00080818F7B80830895823079F030F48823AE
:100DB00049F08130A9F45F9A06C0833041F08F3F3B
:100DC00041F00EC05F98579A04C05F9801C05F9AC7
:100DD000579880916D00806880936D0080E0089541
:100DE00081E00895EDE6F0E080818F7780830895BB
:100DF00024B595B56F3FC1F0987F462F50E048303D
:100E0000510580F5FA01EB5AFF4F0C94990D916052
:100E10000BC0926009C0936007C0946005C09560E4
:100E200003C0966001C097608F3FC1F02C7F977F11
:100E3000823069F028F4882389F0813059F014C099
:100E4000853039F0873041F0833071F406C022607C
:100E500005C09860216002C09860236024BD95BDE4
:100E600080E0089583E0089584E0089594B58F3F6D
:100E700069F09F73813039F048F0823031F083306F
:100E8000E1F4906C03C0906401C090686F3F91F0F2
:100E90009F7C823061F030F4882361F0813069F406
:100EA000906108C0833029F08F3F21F006C0906226
:100EB00001C0906394BD80E0089581E00895EEE65E
:100EC000F0E08081816080830895EEE6F0E080812B
:100ED0008E7F80830895A89A0895EEE6F0E08081E1
:100EE000826080830895EEE6F0E080818D7F8083CC
:100EF0000895A99A0895EEE6F0E0808184608083E9
:100F00000895EEE6F0E080818B7F80830895AA9AB1
:100F1000089585B5806885BD089585B5806485BDD3
:100F2000089586BD089586B5089587BD089587B54F
:100F3000089588BD089588B5089520918000909106
:100F400081006F3F11F0987F962B8F3F69F083FFF0
:100F500002C0906101C09F7E82FF02C0986001C004
:100F6000977F83702C7F282B2093800090938100A3
:100F700080E00895209180008F3F31F030E4839F1E
:100F8000C00111242F73282B6F3F31F02F7C80E19B
:100F9000689FB0011124262B2093800080E00895E3
:100FA000E1E8F0E090819F73982B908380E00895B2
:100FB000EFE6F0E080818160808380E00895EFE6D5
:100FC000F0E080818E7F808380E00895B09A80E099
:100FD0000895EFE6F0E080818260808380E00895EC
:100FE000EFE6F0E080818D7F808380E00895B19A04
:100FF00080E00895EFE6F0E080818460808380E007
:101000000895EFE6F0E080818B7F808380E0089593
:10101000B29A80E00895EFE6F0E0808180628083FC
:1010200080E00895EFE6F0E080818F7D808380E0AE
:101030000895B59A80E00895E2E8F0E08081806844
:10104000808380E00895E2E8F0E08081806480831E
:1010500080E008952FB7F8949093850080938400E2
:101060002FBF80E0089580918400909185000895BD
:101070002FB7F89490938900809388002FBF80E069
:101080000895809188009091890008952FB7F89471
:1010900090938B0080938A002FBF80E00895809109
:1010A0008A0090918B0008952FB7F8949093870051
:1010B000809386002FBF80E00895809186009091F4
:1010C000870008952091B0009091B1006F3F11F01A
:1010D000987F962B8F3F41F082FF02C0986001C03D
:1010E000977F83702C7F282B2093B0009093B100C2
:1010F00080E008952091B0008F3F31F030E4839F6D
:10110000C00111242F73282B6F3F31F02F7C80E119
:10111000689FB0011124262B2093B00080E0089531
:10112000E0E7F0E080818160808380E00895E0E77F
:10113000F0E080818E7F808380E00895B89A80E01F
:101140000895E0E7F0E080818260808380E0089588
:10115000E0E7F0E080818D7F808380E00895B99A98
:1011600080E00895E0E7F0E080818460808380E0A3
:101170000895E0E7F0E080818B7F808380E0089530
:10118000BA9A80E00895E1EBF0E080818068808386
:1011900080E00895E1EBF0E080818064808380E06E
:1011A00008958093B20080E008958091B200089580
:1011B0008093B30080E008958091B30008958093F8
:1011C000B40080E008958091B40008956F3F51F01D
:1011D00090917C0020E4629FB00111249F73962BB4
:1011E00090937C004F3F31F090917A00987F942B40
:1011F00090937A008F3F39F1811104C080917A0079
:101200008F7D1FC020917B00287F90E0FC013297EA
:10121000E730F105D0F4E35AFF4F0C94990D2160AB
:101220000BC0226009C0236007C0246005C0256090
:1012300003C0266001C0276020937B0080917A0064
:10124000806280937A0080E0089587E00895ECE75B
:10125000F0E09081907F982B908380E00895EEE7F6
:10126000F0E0908180958923808380E00895EEE707
:10127000F0E09081982B908380E00895811104C064
:1012800080917C00806203C080917C008F7D809380
:101290007C0080E00895EAE7F0E080818068808348
:1012A00080E00895EAE7F0E080818F77808380E036
:1012B0000895EAE7F0E080818061808380E008950E
:1012C000EAE7F0E080818860808380E00895EAE7C3
:1012D000F0E08081877F808380E00895EAE7F0E096
:1012E00080818064808380E0089580917A0086FB0D
:1012F000882780F9089580917A0086FDFCCF80E0F0
:1013000008958F929F92AF92BF92CF92DF92EF9209
:10131000FF920F934A015B019E2D3091C0003091E6
:10132000C1003091C2009F3F19F0923008F05FC0B9
:101330000F3F19F0033008F05CC02F3F19F0253043
:1013400008F057C08F3F79F48091C200829586954E
:101350008695837021F08330E9F080E004C08091AD
:10136000C000869581709FEF89169906A906B90677
:1013700009F441C0813049F018F0843089F022C06E
:1013800060E472E48FE090E00FC060E874E88EE102
:1013900090E00AC08FEF88169806A806B80659F1A3
:1013A00060E072E18AE790E0A50194010E94770D68
:1013B000215031094109510949015A01C12CD12C4F
:1013C000760108C0812C912CA12CB12CC12CD12CE0
:1013D000E12CF12C9401A501B601C70108E00E949F
:1013E000A10D2F702093C5008092C40004C087E037
:1013F00003C085E001C080E00F91FF90EF90DF9087
:10140000CF90BF90AF909F908F900895E1ECF0E067
:1014100080818061808380E00895E1ECF0E080814C
:101420008F7E808380E00895E1ECF0E08081886029
:10143000808380E00895E1ECF0E08081877F808305
:1014400080E00895E1ECF0E080818068808380E0B6
:101450000895E1ECF0E080818F77808380E008954B
:10146000E1ECF0E080818064808380E00895E1EC2D
:10147000F0E080818F7B808380E00895E1ECF0E0F4
:1014800080818062808380E00895E1ECF0E08081DB
:101490008F7D808380E0089588E091E090937B01C8
:1014A00080937A01909379018093780190937701EA
:1014B0008093760180E008958091C000881F88277E
:1014C000881F08958091C00086FB882780F90895C1
:1014D0008091C00085FB882780F90895CF93C82F9D
:1014E0000E94680A8823E1F3C093C60080E0CF9190
:1014F00008958091C00084FD02C080E001C082E0B8
:101500009091C00093FD84609091C00092FF02C052
:1015100088600895811101C081E00895CF93C82F9C
:101520000E94680A8823E1F3C093C60080E0CF914F
:101530000895CF93DF93EC010E94680A8823E1F3BA
:10154000CE01882791708091C100992311F08160AC
:1015500001C08E7F8093C100C093C60080E0DF9100
:10156000CF9108958091C00087FFFCCF8091C0008B
:101570008091C60008958091C00087FFFCCF8091C4
:10158000C0008091C1002091C600827090E09695C5
:10159000982F882797958795822B08958091C00072
:1015A00087FF03C08091C600F9CF0895FF920F9383
:1015B0001F93CF93DF93F82EC0917301D0E0BE014B
:1015C0006F5F7F4F882777FD8095982F22E330E06B
:1015D00040E050E00E94770D0091750110E020E09E
:1015E00030E0601771078207930751F0CF5BDE4F41
:1015F000F88260937301809174018F5F809374010E
:10160000DF91CF911F910F91FF900895CF93DF93BA
:101610006091750170E0FB01EF5BFE4FD081C091DE
:101620007401CC2389F06F5F7F4F882777FD809509
:10163000982F22E330E040E050E00E94770D609365
:101640007501C150C09374018D2FDF91CF91089522
:1016500081E090917401911180E0089560E070E064
:10166000CB01089508958EBD0DB407FCFDCF8EB556
:1016700008950DB407FCFDCF8EB50895CF93DF9389
:10168000CDB7DEB7CE59D1090FB6F894DEBF0FBE85
:10169000CDBF2FEF33ED80E3215030408040E1F7A4
:1016A00000C0000080913901837F886080933901F8
:1016B00088EE93E090933B0180933A0110924001B1
:1016C00010923D0119821A821B821C82FE013596FE
:1016D00080E6DF011D928A95E9F7C956DF4F18822F
:1016E00019821A821B82C759D040C556DF4F188213
:1016F00019821A821B82CB59D040399847E061E0A9
:1017000080E00E94E60881E00E9427090E945909B2
:101710000E9460090E944B090E946E0963E084E008
:101720000E949D070E9408080E94F7070E94FA077E
:101730000E94E90720913A0130913B0140E050E0DE
:1017400060E970ED83E090E00E94770DC9010E948E
:10175000380800913D0110E00E9441089C01209F43
:10176000C001219F900D309F900D112464E670E020
:101770000E94630DCB010E94460865E080E00E9454
:10178000F8060E946B070E945F07809139018C70F8
:10179000843081F4E12C00E023E040E855E260E091
:1017A00070E080E00E9481090E94060A0E94140AEB
:1017B0000E94220A7894219A5D9A5C9A3C9A449AF3
:1017C0003FEF83ED90E3315080409040E1F700C05F
:1017D00000004498A12C04E610E099E0E92E9DE376
:1017E000F92E809139018C70843009F0FFCF84E6A6
:1017F000D82E0E94280B8111F4CFBB24B394BA0CCD
:101800000E94060BE5E6F0E0EC0FFD1FEA0DF11D6E
:101810008083E5E6F0E0EC0FFD1FEB0DF11D319745
:1018200080818A3211F0AB2CE4CFA6968FADA697BB
:10183000803409F044C1BE016B597F4FCE0101963F
:101840000E94C80D4B8140538A81880F8056982F83
:10185000990F990F980F490FA4E0BA1268C08A81B6
:101860009B819A8389831B8250E04E30510508F09A
:1018700044C0FA01EC5CFF4F0C94990D66E171E0F5
:101880003EC060913A0170913B01CE0189569F4F55
:101890000E94CA0039C06091060128C0609104010D
:1018A00025C06091050122C0609103011FC0809195
:1018B000390184FF07C069E171E021C080913901DD
:1018C00085FDF9CF6EE171E01AC0609102010EC092
:1018D000609100010BC060913D0108C060913E0124
:1018E00005C060913C0102C060913F0170E0CE01F3
:1018F00089569F4F0E94FE0007C063E271E0CE014F
:1019000089569F4F0E94C80DBE0169567F4FCE0178
:1019100001960E94BD0DBE016F5F7F4FCE018956BB
:101920009F4F0E94C80DCE0189569F4FC1C0B8E09D
:10193000BB12C1C08C819D81AE81BF8189839A8396
:10194000AB83BC831D8250E0FA013197EA30F10588
:1019500008F0ACC0EE5BFF4F0C94990DCE010196E0
:101960000E942901BC019093360180933501845F68
:101970009140853F914008F0A4C070933B01609373
:101980003A01C7010E94630DCB010E94380837C09D
:10199000CE0101960E9454018093060192C0CE01AF
:1019A00001960E945401809304019091340189179B
:1019B00008F479C090933D01A0903D01B12C0E94A4
:1019C00041089C012A9DC0012B9D900D3A9D900DD0
:1019D0001124B8010E94630DCB010E94460871C01A
:1019E000CE0101960E94540180930501909134012B
:1019F000981718F410923D0102C090933D01A090F9
:101A00003D01B12C0E944108DC01AA9DC001AB9DA3
:101A1000900DBA9D900D1124DCCFCE0101960E944D
:101A20005401809303014DC08C81813321F4809156
:101A3000390180610DC0803309F043C080913901C4
:101A40008F7E06C08C81813331F4809139018062B0
:101A50008093390136C08033A1F5809139018F7DA3
:101A6000F7CFCE0101960E9454018093020129C054
:101A7000CE0101960E9454018093000122C0CE0144
:101A800001960E9454018093340180933D0190910E
:101A90000501891718F410923D018ECF9091040131
:101AA000981708F089CFD0923D0186CF83E291E06C
:101AB0000E94B20006C088E291E00E94B2000E943B
:101AC000AA00A12C96CEAA1BBB1B51E107C0AA1FDE
:101AD000BB1FA617B70710F0A61BB70B881F991FCF
:101AE0005A95A9F780959095BC01CD010895A1E282
:101AF0001A2EAA1BBB1BFD010DC0AA1FBB1FEE1F88
:101B0000FF1FA217B307E407F50720F0A21BB30BD2
:101B1000E40BF50B661F771F881F991F1A9469F74E
:101B200060957095809590959B01AC01BD01CF01AA
:101B30000895EE0FFF1F0590F491E02D099497FB97
:101B400010F8169400080F93083098F00850232FCF
:101B5000342F452F562F672F782F892F902DF4CFB4
:101B600005949795879577956795579547953795F8
:101B700027950A95AAF70F910895FB01DC010D90B6
:101B80000020E9F7119701900D920020E1F70895E8
:101B9000FB01DC0101900D920020E1F70895F8941B
:021BA000FFCF75
:101BA2001E3C46075A0A64010000000300000000C0
:101BB2006E0ACC0200004F4B003030303100303022
:101BC2003030004552524F0077726F6E6720736952
:041BD2007A65000030
:00000001FF
