:100000000C9464000C9481000C9481000C94810089
:100010000C9481000C9481000C9481000C9481005C
:100020000C9481000C9481000C9481000C94CE01FE
:100030000C94E2010C9481000C9481000C948100DA
:100040000C94F3010C9481000C9498020C948100A0
:100050000C9481000C9464010C9481000C94810038
:100060000C9481000C948100200C230C2D0C300C7E
:10007000330C360C390C400C470C4A0C4D0C500C10
:10008000530C580C980CC00CC70CCE0CD90CE00CBF
:10009000F00CFE0C050D0C0DD302E302D502D702C5
:1000A000D902DB02DD02DF02E1020607F906FB06E8
:1000B000FD06FF06010703070507010903090509F6
:1000C000070909090B090D0911241FBECFEFD8E05C
:1000D000DEBFCDBF11E0A0E0B1E0EAE1FBE102C08C
:1000E00005900D92A433B107D9F721E0A4E3B1E064
:1000F00001C01D92AA37B207E1F70E94300B0C94A1
:100100008B0D0C940000CF93C82F80910501C81768
:1001100018F410923B011AC0809104018C1720F44E
:1001200084E680933B0112C0C0933B010E943308D8
:100130009C01C29FC001C39F900D112464E670E032
:100140000E941F0DCB01CF910C943808CF910895D8
:100150000E941A0B811103C00E94F80AF9CF08957A
:100160001F93CF93DF93EC0180E40E94800A10E09C
:10017000FE01E10FF11D8081882321F00E94800A99
:100180001F5FF6CF8AE2DF91CF911F910C94800A16
:100190000F931F93CF93DF93FC019B011482CAE05E
:1001A000D0E0CB01BE010E941F0D805D838304E679
:1001B00010E0C901B8010E941F0DBE010E941F0D71
:1001C000605D6283C8EED3E0C901BE010E941F0DCD
:1001D000B8010E941F0D605D6183C90160E177E293
:1001E0000E941F0DBE010E941F0D605D6083DF91A4
:1001F000CF911F910F9108950F931F93CF93DF938A
:10020000FC019B0114820AE010E0CB01B8010E94BE
:100210001F0D805D8383C4E6D0E0C901BE010E944A
:100220001F0DB8010E941F0D605D6283C90168EE59
:1002300073E00E941F0DBE010E941F0D605D61836F
:1002400080E38083DF91CF911F910F910895FC018E
:10025000238130E020533109808190E0C09768EE1F
:1002600073E0869FA001879F500D969F500D11242B
:10027000240F351F818190E0C09764E6689FA0013C
:10028000699F500D1124240F351F428150E04053C7
:1002900051096AE0649FC001659F900D1124820F8F
:1002A000931F0895FC01838180539181905324E62C
:1002B000929F800D11249281990F9056292F220F21
:1002C000220F290F820F08951F920F920FB60F92DF
:1002D00011242F933F934F935F936F937F938F934B
:1002E0009F93AF93BF93EF93FF938091350181303C
:1002F00001F190F1823079F08330B1F5809178008E
:100300009091790065E170E00E941F0D60933D01BE
:10031000109235012CC0809178009091790065E0B1
:1003200070E00E941F0D70933A016093390181E0E3
:100330001CC0809136018C70883061F48091780007
:10034000909179006AE070E00E941F0D86E6861B9E
:100350008093340183E009C0809178009091790006
:100360009695879580933C0182E08093350180913A
:1003700035010E9419090E946009FF91EF91BF9118
:10038000AF919F918F917F916F915F914F913F912D
:100390002F910F900FBE0F901F9018951F920F92E4
:1003A0000FB60F9211248F9380913B01882321F087
:1003B00080913E018111299A8F910F900FBE0F906D
:1003C0001F9018951F920F920FB60F9211248F93C2
:1003D00080913B01843608F429988F910F900FBECD
:1003E0000F901F9018951F920F920FB60F92112425
:1003F0002F933F934F935F936F937F938F939F932D
:10040000AF93BF93EF93FF9390913601892F8C7038
:10041000883091F489B185FB882780F921E0822713
:1004200080FB94F99093360189B18295817082277F
:1004300080FB95F99093360180913601807380336B
:1004400019F010923E010DC0909134018091050188
:10045000981738F480913E01811103C081E08093A8
:100460003E0180913E0190913B01882369F180918A
:100470003401981771F1981720F560910501482F04
:1004800050E0262F30E02B5F3F4F24173507CCF488
:100490002091070130910801215031093093080162
:1004A00020930701232BA9F423E030E030930801C7
:1004B00020930701911102C0862F09C081E0890FA6
:1004C00006C0891730F403C0992319F080E00E9418
:1004D000830080913B01909105018917C0F0209124
:1004E000060130E04091390150913A012417350757
:1004F00030F020913D0190910001291740F484369D
:1005000019F48091040101C083500E948300FF917F
:10051000EF91BF91AF919F918F917F916F915F917B
:100520004F913F912F910F900FBE0F901F901895F4
:100530001F920F920FB60F9211242F933F934F9358
:100540005F936F937F938F939F93AF93BF93EF933B
:10055000FF938091C6000E94C80AFF91EF91BF915E
:10056000AF919F918F917F916F915F914F913F914B
:100570002F910F900FBE0F901F9018958091C00083
:1005800087FFFCCF8091C60090E00895789408958D
:10059000F894089590E08930910500F5FC01E45B42
:1005A000FF4F0C94550D80E00FC082E00DC083E03A
:1005B0000BC084E009C085E007C086E005C087E085
:1005C00003C088E001C081E09FB7F89420E8209341
:1005D0006100809361009FBF80E0089587E00895E7
:1005E0002FB330E1839FC00111242F7C282B2FBB18
:1005F0000895FB9A0895FB980895F999FECF27B7BF
:10060000937092BD81BD60BD8FB7F894FA9AF99A44
:100610008FBF0895F999FECF937092BD81BDF89A6E
:1006200080B5089585B78F7E85BF089585B78061B1
:1006300085BF0895823079F030F4882349F0813005
:1006400011F55A9A06C0833041F08F3F41F01BC02C
:100650005A98529A04C05A9801C05A9A52986F3FB9
:10066000A1F0809169008C7F613039F048F06230F0
:1006700031F0633061F4836003C0816001C0826047
:100680008093690002C081E0089580E0089582E0CF
:100690000895E89A0895E8980895E09A08958230B8
:1006A00079F030F4882349F0813011F55B9A06C067
:1006B000833041F08F3F41F01BC05B98539A04C0D8
:1006C0005B9801C05B9A53986F3FA1F080916900DD
:1006D000837F613039F048F0623031F0633061F48B
:1006E0008C6003C0846001C088608093690002C090
:1006F00081E0089580E0089582E00895E99A0895E0
:10070000E9980895E19A0895E8E6F0E08081816033
:1007100080830895E8E6F0E080818E7F80830895ED
:10072000D89A0895823079F030F4882349F08130E6
:10073000A9F4289A06C0833041F08F3F41F00EC0E3
:100740002898209A04C0289801C0289A209880915F
:100750006B00816080936B0080E0089581E00895D4
:10076000EBE6F0E080818E7F80830895823079F01F
:1007700030F4882349F08130A9F4299A06C08330E7
:1007800041F08F3F41F00EC02998219A04C029986A
:1007900001C0299A219880916B00826080936B0040
:1007A00080E0089581E00895EBE6F0E080818D7FA0
:1007B00080830895823079F030F4882349F08130C5
:1007C000A9F42A9A06C0833041F08F3F41F00EC051
:1007D0002A98229A04C02A9801C02A9A22988091C5
:1007E0006B00846080936B0080E0089581E0089541
:1007F000EBE6F0E080818B7F80830895823079F092
:1008000030F4882349F08130A9F42B9A06C0833054
:1008100041F08F3F41F00EC02B98239A04C02B98D3
:1008200001C02B9A239880916B00886080936B00A5
:1008300080E0089581E00895EBE6F0E08081877F15
:1008400080830895823079F030F4882349F0813034
:10085000A9F42C9A06C0833041F08F3F41F00EC0BE
:100860002C98249A04C02C9801C02C9A249880912A
:100870006B00806180936B0080E0089581E00895B3
:10088000EBE6F0E080818F7E80830895823079F0FE
:1008900030F4882349F08130A9F42D9A06C08330C2
:1008A00041F08F3F41F00EC02D98259A04C02D983D
:1008B00001C02D9A259880916B00806280936B0017
:1008C00080E0089581E00895EBE6F0E080818F7D7F
:1008D00080830895823079F030F4882349F08130A4
:1008E000A9F42E9A06C0833041F08F3F41F00EC02C
:1008F0002E98269A04C02E9801C02E9A2698809190
:100900006B00806480936B0080E0089581E008951F
:10091000EBE6F0E080818F7B80830895823079F070
:1009200030F4882349F08130A9F42F9A06C083302F
:1009300041F08F3F41F00EC02F98279A04C02F98A6
:1009400001C02F9A279880916B00806880936B007C
:1009500080E0089581E00895EBE6F0E080818F77F4
:1009600080830895E8E6F0E08081826080830895C6
:10097000E8E6F0E080818D7F80830895D99A08951C
:10098000823079F030F4882349F08130A9F4409A1C
:1009900006C0833041F08F3F41F00EC04098389A36
:1009A00004C0409801C0409A389880916C008160E2
:1009B00080936C0080E0089581E00895ECE6F0E01B
:1009C00080818E7F80830895823079F030F488238F
:1009D00049F08130A9F4419A06C0833041F08F3F3D
:1009E00041F00EC04198399A04C0419801C0419A23
:1009F000399880916C00826080936C0080E008954B
:100A000081E00895ECE6F0E080818D7F8083089599
:100A1000823079F030F4882349F08130A9F4429A89
:100A200006C0833041F08F3F41F00EC042983A9AA1
:100A300004C0429801C0429A3A9880916C00846048
:100A400080936C0080E0089581E00895ECE6F0E08A
:100A500080818B7F80830895823079F030F4882301
:100A600049F08130A9F4439A06C0833041F08F3FAA
:100A700041F00EC043983B9A04C0439801C0439A8A
:100A80003B9880916C00886080936C0080E00895B2
:100A900081E00895ECE6F0E08081877F808308950F
:100AA000823079F030F4882349F08130A9F4449AF7
:100AB00006C0833041F08F3F41F00EC044983C9A0D
:100AC00004C0449801C0449A3C9880916C008061B5
:100AD00080936C0080E0089581E00895ECE6F0E0FA
:100AE00080818F7E80830895823079F030F488236E
:100AF00049F08130A9F4459A06C0833041F08F3F18
:100B000041F00EC045983D9A04C0459801C0459AF1
:100B10003D9880916C00806280936C0080E0089525
:100B200081E00895ECE6F0E080818F7D8083089578
:100B3000823079F030F4882349F08130A9F4469A64
:100B400006C0833041F08F3F41F00EC046983E9A78
:100B500004C0469801C0469A3E9880916C0080641B
:100B600080936C0080E0089581E00895ECE6F0E069
:100B700080818F7B80830895E8E6F0E08081846047
:100B800080830895E8E6F0E080818B7F808308957C
:100B9000DA9A0895823079F030F4882349F0813070
:100BA000A9F4589A06C0833041F08F3F41F00EC03F
:100BB0005898509A04C0589801C0589A50988091FB
:100BC0006D00816080936D0080E0089581E008955C
:100BD000EDE6F0E080818E7F80830895823079F0A9
:100BE00030F4882349F08130A9F4599A06C0833043
:100BF00041F08F3F41F00EC05998519A04C0599866
:100C000001C0599A519880916D00826080936D0067
:100C100080E0089581E00895EDE6F0E080818D7F29
:100C200080830895823079F030F4882349F0813050
:100C3000A9F45A9A06C0833041F08F3F41F00EC0AC
:100C40005A98529A04C05A9801C05A9A5298809160
:100C50006D00846080936D0080E0089581E00895C8
:100C6000EDE6F0E080818B7F80830895823079F01B
:100C700030F4882349F08130A9F45B9A06C08330B0
:100C800041F08F3F41F00EC05B98539A04C05B98CF
:100C900001C05B9A539880916D00886080936D00CD
:100CA00080E0089581E00895EDE6F0E08081877F9F
:100CB00080830895823079F030F4882349F08130C0
:100CC000A9F45C9A06C0833041F08F3F41F00EC01A
:100CD0005C98549A04C05C9801C05C9A54988091C6
:100CE0006D00806180936D0080E0089581E008953B
:100CF000EDE6F0E080818F7E80830895823079F088
:100D000030F4882349F08130A9F45D9A06C083301D
:100D100041F08F3F41F00EC05D98559A04C05D9838
:100D200001C05D9A559880916D00806280936D003E
:100D300080E0089581E00895EDE6F0E080818F7D08
:100D400080830895823079F030F4882349F081302F
:100D5000A9F45E9A06C0833041F08F3F41F00EC087
:100D60005E98569A04C05E9801C05E9A569880912B
:100D70006D00806480936D0080E0089581E00895A7
:100D8000EDE6F0E080818F7B80830895823079F0FA
:100D900030F4882349F08130A9F45F9A06C083308B
:100DA00041F08F3F41F00EC05F98579A04C05F98A2
:100DB00001C05F9A579880916D00806880936D00A4
:100DC00080E0089581E00895EDE6F0E080818F777E
:100DD0008083089524B595B56F3FC1F0987F462F65
:100DE00050E04830510580F5FA01EB5AFF4F0C9462
:100DF000550D91600BC0926009C0936007C094606C
:100E000005C0956003C0966001C097608F3FC1F038
:100E10002C7F977F823069F028F4882389F0813015
:100E200059F014C0853039F0873041F0833071F4C7
:100E300006C0226005C09860216002C098602360EF
:100E400024BD95BD80E0089583E0089584E0089571
:100E500094B58F3F69F09F73813039F048F082304C
:100E600031F08330E1F4906C03C0906401C090686D
:100E70006F3F91F09F7C823061F030F4882361F005
:100E8000813069F4906108C0833029F08F3F21F0F0
:100E900006C0906201C0906394BD80E0089581E037
:100EA0000895EEE6F0E08081816080830895EEE6AB
:100EB000F0E080818E7F80830895A89A0895EEE601
:100EC000F0E08081826080830895EEE6F0E080812A
:100ED0008D7F80830895A99A0895EEE6F0E08081E1
:100EE000846080830895EEE6F0E080818B7F8083CC
:100EF0000895AA9A089585B5806885BD089585B539
:100F0000806485BD089586BD089586B5089587BD22
:100F1000089587B5089588BD089588B508952091EE
:100F20008000909181006F3F11F0987F962B8F3F4A
:100F300069F083FF02C0906101C09F7E82FF02C002
:100F4000986001C0977F83702C7F282B20938000AE
:100F50009093810080E00895209180008F3F31F0D0
:100F600030E4839FC00111242F73282B6F3F31F091
:100F70002F7C80E1689FB0011124262B20938000F4
:100F800080E00895E1E8F0E090819F73982B9083D2
:100F900080E00895EFE6F0E080818160808380E06A
:100FA0000895EFE6F0E080818E7F808380E00895F1
:100FB000B09A80E00895EFE6F0E08081826080835F
:100FC00080E00895EFE6F0E080818D7F808380E00F
:100FD0000895B19A80E00895EFE6F0E080818460A2
:100FE000808380E00895EFE6F0E080818B7F80834E
:100FF00080E00895B29A80E00895EFE6F0E0808105
:101000008062808380E00895EFE6F0E080818F7D4C
:10101000808380E00895B59A80E00895E2E8F0E0EA
:1010200080818068808380E00895E2E8F0E080813C
:101030008064808380E008952FB7F89490938500B2
:10104000809384002FBF80E0089580918400909168
:10105000850008952FB7F8949093890080938800B5
:101060002FBF80E0089580918800909189000895B5
:101070002FB7F89490938B0080938A002FBF80E065
:10108000089580918A0090918B0008952FB7F8946D
:1010900090938700809386002FBF80E00895809111
:1010A00086009091870008952091B0009091B10042
:1010B0006F3F11F0987F962B8F3F41F082FF02C067
:1010C000986001C0977F83702C7F282B2093B000FD
:1010D0009093B10080E008952091B0008F3F31F0EF
:1010E00030E4839FC00111242F73282B6F3F31F010
:1010F0002F7C80E1689FB0011124262B2093B00043
:1011000080E00895E0E7F0E080818160808380E006
:101110000895E0E7F0E080818E7F808380E008958D
:10112000B89A80E00895E0E7F0E0808182608083F3
:1011300080E00895E0E7F0E080818D7F808380E0AB
:101140000895B99A80E00895E0E7F0E08081846036
:10115000808380E00895E0E7F0E080818B7F8083EA
:1011600080E00895BA9A80E00895E1EBF0E0808194
:101170008068808380E00895E1EBF0E08081806406
:10118000808380E008958093B20080E0089580918C
:10119000B20008958093B30080E008958091B30079
:1011A00008958093B40080E008958091B40008957C
:1011B0006F3F51F090917C0020E4629FB0011124B8
:1011C0009F73962B90937C004F3F31F090917A0063
:1011D000987F942B90937A008F3F39F1811104C04E
:1011E00080917A008F7D1FC020917B00287F90E046
:1011F000FC013297E730F105D0F4E35AFF4F0C942D
:10120000550D21600BC0226009C0236007C0246017
:1012100005C0256003C0266001C0276020937B00C5
:1012200080917A00806280937A0080E0089587E060
:101230000895ECE7F0E09081907F982B908380E018
:101240000895EEE7F0E0908180958923808380E027
:101250000895EEE7F0E09081982B908380E0089568
:10126000811104C080917C00806203C080917C0069
:101270008F7D80937C0080E00895EAE7F0E0808134
:101280008068808380E00895EAE7F0E080818F77CE
:10129000808380E00895EAE7F0E0808180618083C8
:1012A00080E00895EAE7F0E080818860808380E054
:1012B0000895EAE7F0E08081877F808380E00895E9
:1012C000EAE7F0E080818064808380E00895809187
:1012D0007A0086FB882780F9089580917A0086FD40
:1012E000FCCF80E008958F929F92AF92BF92CF92F1
:1012F000DF92EF92FF920F934A015B019E2D309196
:10130000C0003091C1003091C2009F3F19F092306F
:1013100008F05FC00F3F19F0033008F05CC02F3FAA
:1013200019F0253008F057C08F3F79F48091C20042
:10133000829586958695837021F08330E9F080E070
:1013400004C08091C000869581709FEF8916990630
:10135000A906B90609F441C0813049F018F084307B
:1013600089F022C060E472E48FE090E00FC060E892
:1013700074E88EE190E00AC08FEF88169806A80600
:10138000B80659F160E072E18AE790E0A5019401A6
:101390000E94330D215031094109510949015A0177
:1013A000C12CD12C760108C0812C912CA12CB12C00
:1013B000C12CD12CE12CF12C9401A501B601C7015F
:1013C00008E00E945D0D2F702093C5008092C4003C
:1013D00004C087E003C085E001C080E00F91FF906A
:1013E000EF90DF90CF90BF90AF909F908F90089537
:1013F000E1ECF0E080818061808380E00895E1ECA1
:10140000F0E080818F7E808380E00895E1ECF0E061
:1014100080818860808380E00895E1ECF0E0808145
:10142000877F808380E00895E1ECF0E08081806830
:10143000808380E00895E1ECF0E080818F77808305
:1014400080E00895E1ECF0E080818064808380E0BA
:101450000895E1ECF0E080818F7B808380E0089547
:10146000E1ECF0E080818062808380E00895E1EC2F
:10147000F0E080818F7D808380E0089589E091E0B5
:10148000909379018093780190937701809376010E
:10149000909375018093740180E008958091C0005D
:1014A000881F8827881F08958091C00086FB8827A1
:1014B00080F908958091C00085FB882780F9089500
:1014C000CF93C82F0E945A0A8823E1F3C093C60025
:1014D00080E0CF9108958091C00084FD02C080E03B
:1014E00001C082E09091C00093FD84609091C000A3
:1014F00092FF02C088600895811101C081E00895C3
:10150000CF93C82F0E945A0A8823E1F3C093C600E4
:1015100080E0CF910895CF93DF93EC010E945A0AA7
:101520008823E1F3CE01882791708091C10099232F
:1015300011F0816001C08E7F8093C100C093C6000E
:1015400080E0DF91CF9108958091C00087FFFCCFAC
:101550008091C0008091C60008958091C00087FFEF
:10156000FCCF8091C0008091C1002091C6008270A4
:1015700090E09695982F882797958795822B0895C8
:101580008091C00087FF03C08091C600F9CF089505
:10159000FF920F931F93CF93DF93F82EC0917101A9
:1015A000D0E0BE016F5F7F4F882777FD8095982F31
:1015B00022E330E040E050E00E94330D00917301DF
:1015C00010E020E030E0601771078207930751F0C8
:1015D000C15CDE4FF88260937101809172018F5F70
:1015E00080937201DF91CF911F910F91FF90089529
:1015F000CF93DF936091730170E0FB01E15CFE4FDC
:10160000D081C0917201CC2389F06F5F7F4F882712
:1016100077FD8095982F22E330E040E050E00E9473
:10162000330D60937301C150C09372018D2FDF9110
:10163000CF91089581E090917201911180E0089519
:1016400060E070E0CB01089508958EBD0DB407FCF5
:10165000FDCF8EB508950DB407FCFDCF8EB508956E
:10166000CF93DF93CDB7DEB7CE59D1090FB6F8943B
:10167000DEBF0FBECDBF80913601837F886080932F
:10168000360188EE93E090933801809337011092F1
:101690003E0110923B0119821A821B821C82FE01BC
:1016A000359680E6DF011D928A95E9F7C956DF4F2E
:1016B000188219821A821B82C759D040C556DF4F43
:1016C000188219821A821B82CB59D04039985398BC
:1016D0005B9847E061E080E00E94D80881E00E94CA
:1016E00019090E944B090E9452090E943D090E945B
:1016F000600963E084E00E948F070E94FA070E945D
:10170000E9070E94EC070E94DB0720913701309126
:10171000380140E050E060E970ED83E090E00E9425
:10172000330DC9010E942A0800913B0110E00E947C
:1017300033089C01209FC001219F900D309F900D88
:10174000112464E670E00E941F0DCB010E9438084E
:1017500065E080E00E94EA060E945D070E94510752
:10176000E12C00E023E040E855E260E070E080E03A
:101770000E9473090E94F8090E94060A0E94140A36
:101780007894219A5D9A5C9A3C9A449A3FEF83ED53
:1017900090E3315080409040E1F700C00000449851
:1017A00009E01DE388EEE82E83E0F82E94EFC92EC1
:1017B000DD24D394A12C0E941A0B8111FCCFBB24F1
:1017C000B394BA0C0E94F80AE5E6F0E0EC0FFD1FB6
:1017D000EA0DF11D8083E5E6F0E0EC0FFD1FEB0D57
:1017E000F11D319780818A3211F0AB2CE4CFA6969F
:1017F0008FADA697803409F01FC1BE016B597F4F92
:10180000CE0101960E94840D4B8140538A81880F3E
:101810008056982F990F990F980F490FA4E0BA128C
:101820006AC08A819B819A8389831B8250E04E30F3
:10183000510508F046C0FA01EC5CFF4F0C94550DC1
:1018400067E171E040C06091370170913801CE01CD
:1018500089569F4F0E94C8003BC0609106012AC074
:101860006091040127C06091050124C060910301CB
:1018700021C08091360184FF07C06AE171E023C076
:101880008091360185FDF9CF6FE171E01CC0609158
:10189000020110C0609100010DC060913B010AC0BF
:1018A00060913C0107C06091390170913A0103C019
:1018B00060913D0170E0CE0189569F4F0E94FC006F
:1018C00007C064E271E0CE0189569F4F0E94840DEB
:1018D000BE0169567F4FCE0101960E94790DBE016F
:1018E0006F5F7F4FCE0189569F4F0E94840DCE01BE
:1018F00089569F4F9AC0B8E0BB129AC080913601BA
:101900008C70843009F056CF8C819D81AE81BF816F
:1019100089839A83AB83BC831D8250E0FA0131979F
:10192000EA30F10508F07FC0EE5BFF4F0C94550DD7
:10193000CE0101960E942701843F21E0920728F4FE
:10194000D0923801C09237010DC0893E33E0930731
:1019500028F0F0923801E092370104C090933801EA
:101960008093370180E00E9483006091370170917D
:101970003801C8010E941F0DCB010E942A081ACF0E
:10198000CE0101960E9452018093060113CFCE0131
:1019900001960E945201809304010CCFCE01019662
:1019A0000E94520180930501809134010E948300BE
:1019B00001CFCE0101960E94520180930301FACE1D
:1019C0008C81813321F480913601806106C080339F
:1019D00009F0F0CE809136018F7E80933601EACEF9
:1019E0008C81813321F4809136018062F6CF80337F
:1019F00009F0E0CE809136018F7DEFCFCE010196C8
:101A00000E94520180930201D5CECE0101960E9420
:101A1000520180930001CECECE0101960E94520168
:101A200080933401C7CE84E291E00E94B000C2CE20
:101A300089E291E00E94B0000E94A800BBCEAA1BE0
:101A4000BB1B51E107C0AA1FBB1FA617B70710F0A9
:101A5000A61BB70B881F991F5A95A9F780959095DB
:101A6000BC01CD010895A1E21A2EAA1BBB1BFD01EA
:101A70000DC0AA1FBB1FEE1FFF1FA217B307E4076D
:101A8000F50720F0A21BB30BE40BF50B661F771FC5
:101A9000881F991F1A9469F76095709580959095A5
:101AA0009B01AC01BD01CF010895EE0FFF1F059012
:101AB000F491E02D099497FB10F8169400080F9309
:101AC000083098F00850232F342F452F562F672FBA
:101AD000782F892F902DF4CF05949795879577953A
:101AE000679557954795379527950A95AAF70F91CA
:101AF0000895FB01DC010D900020E9F7119701909A
:101B00000D920020E1F70895FB01DC0101900D9298
:0A1B10000020E1F70895F894FFCFDC
:101B1A001E3C46075A05640300000000030000004B
:101B2A0000600ABE0200004F4B00303030310030F6
:101B3A00303030004552524F0077726F6E67207313
:041B4A00697A65004F
:00000001FF
