:100000000C9440000C945D000C945D000C945D0019
:100010000C945D000C945D000C945D000C945D00EC
:100020000C945D000C945D000C945D000C945D00DC
:100030000C945D000C945D000C945D000C945D00CC
:100040000C945D000C945D000C941A020C945D00FD
:100050000C945D000C945D000C945D000C945D00AC
:100060000C945D000C945D0004B6E704B6D304B6AE
:10007000C704B6C302900703AC8103AC80029000B2
:1000800011241FBECFEFD8E0DEBFCDBF11E0A0E04E
:10009000B1E0E2E2F9E002C005900D92A23AB107A8
:1000A000D9F721E0A2EAB1E001C01D92A73DB20755
:1000B000E1F70E94A7010C948F040C9400008F922A
:1000C0009F92AF92BF92CF92DF92EF92FF920F93E7
:1000D0004A015B01922F2091C0002091C100209124
:1000E000C2002FEFE21621F021E02E1508F47DC0AA
:1000F0000F3F19F0033008F07AC09F3F19F0953098
:1001000008F077C08F3F89F48091C2008295869570
:100110008695837021F0833009F46FC005C080910B
:10012000C0008695817001C080E09FEF8916990616
:10013000A906B90609F45FC08130B9F018F084301F
:1001400039F139C060E472E48FE090E0A5019401D8
:100150000E944F04DA01C9010197A109B1094C01BC
:100160005D01C12CD12C76012EC060E874E88EE1CF
:1001700090E0A50194010E944F04DA01C9010197A2
:10018000A109B1094C015D01C12CD12C76011BC024
:1001900060E072E18AE790E0A50194010E944F04BB
:1001A000DA01C9010197A109B1094C015D01C12C16
:1001B000D12C760108C0812C912CA12CB12CC12C02
:1001C000D12CE12CF12C282D392D4A2D5B2D6C2DB5
:1001D0007D2D8E2D9F2D08E00E9473042F7020939B
:1001E000C5008092C40080E00FC087E00DC085E0AC
:1001F0000BC085E009C080E007C02FEF8216920691
:10020000A206B20629F680E00F91FF90EF90DF90F2
:10021000CF90BF90AF909F908F900895E1ECF0E069
:1002200080818061808380E00895E1ECF0E080814E
:100230008860808380E00895E1ECF0E08081806850
:10024000808380E008958091C00085FB882780F935
:100250000895CF93C82F0E9423018823E1F3C09310
:10026000C60080E0CF910895CF92DF92EF92FF9287
:100270001F93CF93DF93182FC091D401D0E0BE011C
:100280006F5F7F4F072E000C880B990B22E330E045
:1002900040E050E00E944F044091D601C42ED12C82
:1002A000E12CF12C6C157D058E059F0551F0CE5586
:1002B000DE4F18836093D4018091D5018F5F8093C6
:1002C000D501DF91CF911F91FF90EF90DF90CF90FC
:1002D0000895CF93DF936091D60170E0FB01EE5556
:1002E000FE4FD081C091D501CC2389F06F5F7F4F45
:1002F000072E000C880B990B22E330E040E050E021
:100300000E944F046093D601C150C093D5018D2F38
:10031000DF91CF91089581E09091D501911180E016
:1003200008950F931F93CF93FC018081882359F088
:100330008F01C0E00E942901CF5FF801EC0FF11D91
:1003400080818111F7CFCF911F910F910895CF93A5
:10035000DF93CDB7DEB7E6970FB6F894DEBF0FBEDA
:10036000CDBFE12C00E023E040E855E260E070E022
:1003700080E00E945F000E940E010E9415010E9411
:100380001C0184E00E94810282E00E94090480E056
:1003900091E00E9491018FE091E00E949101789498
:1003A00081E090E098A38F8F8AA3F12C0E94FA023B
:1003B0008823D9F187E291E00E949101CE018B96CA
:1003C0000E94FE02882341F088E391E00E9491019F
:1003D0008FA50E94290129C085E491E00E94910126
:1003E00024C086E591E00E94910111E0100F0E9467
:1003F0006901E1E0F0E0EC0FFD1FE00FF11D8083EB
:10040000FE01E10FF11D80818BA38FE691E00E9438
:100410009101CE014F960E94B1038AE891E00E94BB
:1004200091011E3108F01F2D012F0E948B0188239E
:10043000C1F2BCCF1F920F920FB60F9211242F93CF
:100440003F934F935F936F937F938F939F93AF935C
:10045000BF93EF93FF938091C6000E943401FF91F8
:10046000EF91BF91AF919F918F917F916F915F912C
:100470004F913F912F910F900FBE0F901F901895A5
:10048000CF93DF93D82FC62F2A9882E00E94490489
:100490008D2F0E9449048C2F0E9449042A9ADF91D3
:1004A000CF910895CF93C82F2A9883E00E944904E2
:1004B0008C2F0E9449048FEF0E9449042A9ACF9101
:1004C00008951F93CF93DF93182FD62FC42F2A9808
:1004D00085E00E944904812F0E9449048D2F0E94CB
:1004E00049048C2F0E9449042A9ADF91CF911F91D1
:1004F00008952A980E9449048FEF0E9449042A9A7D
:100500000895CF92DF92EF92FF920F931F93CF93B4
:10051000DF93883008F062C0C82F2A9A229A2D985B
:100520002B982C98259A239A24980E9444042A9860
:1005300080EC0E94490489EF90E00197F1F700C038
:1005400000002A9A83EC99E00197F1F700C00000BF
:100550002A9882E00E94490488E20E9449048C2F74
:1005600090E06C01CC0CDD1CC80ED91E00E010E040
:10057000EC017E01F801EC0DFD1DE859FF4F84915F
:100580000E9449040F5F1F4F0330110591F783E06C
:100590000E9449042A9A60E08DE00E944002389847
:1005A000409A60E08CE00E94400289E20E94520280
:1005B000C82FF701EE0FFF1FEE0DFF1DE759FF4F8C
:1005C000E49060E08FE00E944002CE1109C08EE00E
:1005D0000E945202807ED9F781E003C080E001C012
:1005E00080E0DF91CF911F910F91FF90EF90DF900E
:1005F000CF90089586B1809581700895CF92DF9253
:10060000EF92FF920F931F93CF93DF936C0180EBD8
:100610000E947902C82FD82FD07486FD53C088233A
:100620000CF05AC03DC08FEF0E944904C3FB9927CC
:1006300090F9F601228190FB20F922838F70838349
:100640008823A9F086010C5F1F4F9FEF980FE92EBA
:10065000F12CF5E0EF0EF11CEC0CFD1C8FEF0E946D
:100660004904F80181938F01EE15FF05B9F72A9A25
:10067000DD2331F040E061E08CE20E94610205C0C0
:1006800040E062E08CE20E946102C770D1E0DC0FC2
:1006900023C02A9A40E062E08CE20E9461021CC002
:1006A0002A9884E90E944904C6010E94760380FDCD
:1006B000F0CFB9CF2A9A40E061E08CE20E9461025B
:1006C000D0E00AC02A9880E90E944904C6010E942D
:1006D000760380FDEFCFA7CF8D2FDF91CF911F91B4
:1006E0000F91FF90EF90DF90CF9008951F93CF93DD
:1006F000DF93EC018FEF0E944904182F8FEF0E94C7
:100700004904482F83FF08C08FEF0E9449048FEFF0
:100710000E94490481E021C08FEF8EBD212F30E07F
:10072000220F331F220F331F220F331F39832883D9
:100730000DB407FEFDCF8EB58FEF8EBD8881942F4F
:10074000929596959770982B98830DB407FEFDCFE0
:100750008EB5842F807144FD82E0DF91CF911F918F
:100760000895DF92EF92FF920F931F93CF93DF9341
:100770007C0180EA0E94790282FF08C084FF08C0E1
:1007800086FD3EC06894DD24D2F805C0D12C03C09C
:100790006894DD24D1F82A988D2D80640E94490444
:1007A000C7010E942904F70113811F70828180FF15
:1007B00005C0812F80640E94490414C0812F0E94CB
:1007C0004904112379F0E70124961150012F10E01C
:1007D0000B5F1F4F0E0D1F1D89910E944904C0170A
:1007E000D107D1F72A9A00002A98D11002C0DD243F
:1007F000D3948D2D80680E9449042A9A8D2D01C0C2
:1008000080E0DF91CF911F910F91FF90EF90DF90EB
:100810000895CF93DF93882331F0813031F0833016
:1008200031F4C0E205C0C0E603C0C0E401C0C0E0CE
:100830004C2F60EE8FE00E946102D0E08EE00E94BB
:100840005202807E90E08C179D07C1F7DF91CF9117
:100850000895FC012081318136952795369527959D
:10086000369527952EBD80818295880F807E0DB4A8
:1008700007FEFDCF9EB50E94490480E00E94490416
:1008800080E00E944904089581E58CBD81E08DBD22
:1008900008958EBD0DB407FEFDCF8EB50895A1E27B
:1008A0001A2EAA1BBB1BFD010DC0AA1FBB1FEE1FEA
:1008B000FF1FA217B307E407F50720F0A21BB30B35
:1008C000E40BF50B661F771F881F991F1A9469F7B1
:1008D00060957095809590959B01AC01BD01CF010D
:1008E000089597FB10F8169400080F93083098F0BD
:1008F0000850232F342F452F562F672F782F892FFD
:10090000902DF4CF05949795879577956795579592
:100910004795379527950A95AAF70F910895F8946A
:02092000FFCF07
:1009220063616E5F696E69743A206F6B0D0A0063D2
:10093200616E5F7374617469635F66696C7465721A
:100942003A206F6B0D0A00725F6D736720726563E8
:1009520065626964610D0A00725F6D7367206C697C
:1009620064610D0A00725F6D736720636F6D2065AD
:1009720072726F0D0A006D73672064612075736176
:100982007274207265636562696461200D0A007485
:10099200656E74616E646F20656E76696172207037
:1009A200656C612063616E0D0A006D736720656E70
:1009B20076696164612070656C612063616E0D0A05
:0209C200000033
:00000001FF
